:02000002B0004C
:1040000000400B004C670B00000006000C0005028E
:0840100004010410000000008F
:04401800E0630B0056
:1040200009480A49884208B505D0094A824202D0A7
:10403000121A02F023F90748074A0021121A02F067
:104040002BF9014808BD00BFF4E50320B8660B005A
:1040500060E6032060E60320EDE7032070B5074E1D
:10406000074C01F0F7FAA41BA4080025AC4200D1CC
:1040700070BD56F8043B98470135F7E76C660B00B6
:1040800090660B0000F014B808B500F049F8BDE8E0
:10409000084001F097BA00F0CBBD00F0D1BD007828
:1040A000B0FA80F0400970470123037070470000A8
:1040B00038B501F0B3FB4FF4165101F09BF901F054
:1040C000FBF94FF4E13101F0EBF9124D124800F029
:1040D0005CF9044648B101F0EFF9294601F007F810
:1040E0004FF47A7000F0C4FDF0E701F0E5F90B49F8
:1040F00000F0FDFF08480222202100F0A2F921462D
:10410000054800F0B1F9BDE838400348022100F04D
:1041100089B900BFF4630B0060E6032010640B0054
:1041200073B5184E304600F0A6F8054601F0C4F904
:10413000154900F0C9FF01F0BFF90A2229460446DB
:1041400000F0DFFF204600F0C6FF304600F0BCF86C
:104150008DED010A01F0B0F90C4900F0B5FF01F056
:10416000ABF99DED010A022101F0B2F801F0A4F9CA
:10417000074900F0BCFF642002B0BDE8704000F0C9
:1041800077BD00BF60E603202E640B0034640B0093
:1041900039640B0008B501F041FBBDE80840024658
:1041A0001C21014800F002B860E603202DE9F0412F
:1041B000114C064688461146174600F065F92368FB
:1041C000C6F81630083414F8043CB3760FCC4FF020
:1041D000000C06F12005C6F80CC00FC50FCC0FC5AA
:1041E00094E80F0085E80F00A6F850C0376186F804
:1041F00014803046BDE8F08140640B002DE9F041A9
:1042000005460F461E461446002A30D0C368017D7D
:1042100033B3184600F0F2FDE8680368F9B29B6812
:104220009847E86800F0F2FD297DE868324600F022
:10423000E2FD274606EB0408474506D0E868036818
:104240005B69984707F8010BF6E70023B3420FD2EA
:104250005A1CE15CA05CE0540233A154DBB2F5E7E8
:10426000069613463A46BDE8F04100F095BA164668
:104270003046BDE8F0811FB5437D022B4FF00003AF
:10428000009303AA4FF004030CBF07210921FFF795
:10429000B5FF9DF80F309DF80E201B0443EA026322
:1042A0009DF80D2013439DF80C2043EA022307EEEE
:1042B000903AF8EE677AFCEEE77A17EE900A05B0CE
:1042C0005DF804FB00000000DFB5437D022B0446CF
:1042D00037D1002303AA009307210423FFF78EFFA1
:1042E0009DF80F309DF80E001B0443EA00639DF813
:1042F0000D0003439DF80C0043EA002001F0F6FB9B
:1043000012A3D3E9002301F06BFC94F8503023444E
:104310000646987D0F4601F0F9FB94F8513004EB06
:10432000C304D4E9082301F05BFC02460B46304687
:10433000394601F07FFD01F04BFF00EE100A04B09A
:10434000D0BD9FED010AFAE700000000333333339C
:104350003333E33F1FB5C3680C4683B1002300939A
:10436000022303AA1946FFF749FFBDF80C0040BA23
:10437000C0B2844214BF0020012004B010BD02224C
:1043800000F0D8F9C0B2A042F4E710B504464FF4EB
:10439000FA7000F06DFC2046C82100F07CF8E0685F
:1043A00008B100F0F9FC217D39B12046FFF7D2FFBA
:1043B00080F00100404240B210BD4FF0FF30FBE7FB
:1043C000F7B51D46C3680E460746017D144613B374
:1043D000184600F013FDF8680368711D9B68C9B2A8
:1043E00098470023AB4209D32544AC42F8680DD06E
:1043F000026814F8011B92689047F6E75A1CE15CCA
:10440000A05CE0540233A154DBB2EBE700F0FEFC09
:10441000002003B0F0BDADB213460095324600F067
:10442000F9F9F6E707B500238DF804308DF805108B
:104430004175022301AA0E21FFF7C2FF03B05DF808
:1044400004FB07B50A44C2F3031380F8513000237C
:104450008DF804308DF80520022301AA0D21FFF705
:10446000AFFF03B05DF804FB07B500238DF80430FF
:104470008DF8051080F85010022301AA0621FFF7DD
:104480009FFF03B05DF804FB6422C0E900214FF0F8
:10449000FF32826070470160704730B50A444FF6C2
:1044A000FF704AF2010491420ED011F8013B5840CE
:1044B000082300F0010540080DB1604080B2013BC7
:1044C00013F0FF03F5D1EEE740BA80B230BD2DE91D
:1044D000F743BDF8285001930646A81D894690462B
:1044E00000F0A6FB0446A8B12B1D9FB203802A460C
:1044F000019980F8029080F80380043001F0BEFE3C
:10450000BA1ED2B2A11C3046FFF7C7FF2544030AEA
:104510002B716871204603B0BDE8F08310B4BDF87C
:1045200004402BB124B101945DF8044BFFF7CFBFD9
:1045300000205DF8044B70472DE9F04F85B0F72956
:104540000E9E0192074689469A4603D821B9002E4D
:1045500037D03170002634E0002303935FFA8AF4E9
:1045600000F0C2F94FF0000B80465D4678680268A3
:1045700012699047B0B178680268526990470BF1B0
:10458000010504ABADB25B44012D03F8040C1CD152
:104590009DF80C50A5EB09035D425D4100F0A4F9C4
:1045A000AB46804600F0A0F93A68A0EB08009042C4
:1045B00001D8032DDADDBBF1040F14D086B9002534
:1045C0002E46304605B0BDE8F08F022DE6D19DF8AD
:1045D0000D30019A03F07F039A4218BF0025DDE7F2
:1045E00009233370EBE79DF80D80B8F1060F0AD868
:1045F000B8F1040F0BD808F1FF33032B0FD94FF09C
:104600000008052410E0A8F10F03012BF9D8BDF82C
:104610000E305BBA9BB25345A2D1082404E09DF84A
:104620000E30A3429CD10534A01C00F001FB0546CE
:104630000028C3D0039B0480C0F8023000F054F976
:10464000043CA4B281464FF0020A786803681B69F3
:10465000984778B1786803685B69984705EB0A0367
:10466000013C187100F040F90AF1010A1FFA8AFAB8
:104670008146A4B200F038F93B68A0EB09009842EB
:1046800003D9284600F0DCFA98E7002CDDD1294652
:10469000384631F8029BA9F10202D2B2FFF7FDFEC3
:1046A00015F80920A94499F8013043EA022383420E
:1046B000E7D106B1347018F0800F1CBF9DF80E30A2
:1046C00033707DE710B50446606803681B6998473E
:1046D00038B1606803685B699847022000F0C8FA47
:1046E000F2E710BD38B50D460446FFF7EBFF05B302
:1046F000A068002806DD80B2012101F01BF83220FD
:1047000000F0EAF860682946036831F8022BDB689C
:10471000984760680368DB699847284600F090FA7C
:10472000A068002805DDBDE83840002180B201F016
:1047300001B838BD7FB501238DF80F308DF80D20FD
:10474000130A0422009200268DF80C3003AB0C46AD
:1047500005468DF80E608DF80B60FFF7B8FE014638
:104760002846FFF7BFFF0DF10B03009321460223FC
:1047700004222846FFF7E0FE9DF80B3004464BB9B3
:1047800028B1B0F8054064BAA4B200F059FA204646
:1047900004B070BD3446FAE72DE9FF41BDF828703A
:1047A0008DF80D2007F001044FEA122C1D4604225B
:1047B000002304EB5704E4B200928DF80E308DF81C
:1047C0000B3003AB064688468DF80CC08DF80F40C1
:1047D000FFF77DFE01463046FFF784FF0DF10B0326
:1047E00000930422630041463046FFF7A5FE9DF882
:1047F0000B3004464BB940B125B1411D3A4628461D
:1048000001F03CFD204600F01BFA9DF80B0004B0BF
:10481000BDE8F0812DE9F04385B002AF16463A8D30
:10482000044612F001000D4642D1FA2A40D8002B6E
:104830003ED002F10C01EC46C908ACEBC1018D463B
:10484000310A8DF80810F72D4FEA520102F10509DF
:104850000DF108088DF809608DF80A008DF80B102D
:104860008DF80C20F87125D819460DF10D0001F0D6
:1048700005FD1FFA89F3102200932946434620467E
:10488000FFF74CFE01462046FFF72CFFFB1D00936F
:104890001022334629462046FFF74EFEFA7912B918
:1048A00008B100F0CDF9F8790C37BD46BDE8F083CA
:1048B0000320F9E70B20F7E708B5024B1B685B6C98
:1048C000019308BD4802030008B5024B1B685B68F2
:1048D000019308BD1802030008B5024B1B68DB6892
:1048E000019308BD1802030008B5024B1B685B6901
:1048F000019308BD1802030008B5024B1B68DB6872
:10490000019308BD2C02030008B5024B1B681B690C
:10491000019308BD2C02030008B5024B1B68DB683D
:10492000019308BD2802030008B5024B1B689B6970
:10493000019308BD2802030008B5024B1B68DB6920
:10494000019308BD2802030008B5024B1B681B6ACF
:10495000019308BD2802030008B5024B1B685B6A7F
:10496000019308BD2802030008B5024B1B689B6A2F
:10497000019308BD2802030008B5024B1B68DB6ADF
:10498000019308BD2802030008B5024B1B681B6B8E
:10499000019308BD2802030008B5024B1B685B6B3E
:1049A000019308BD2802030008B5024B1B681B6C6D
:1049B000019308BD2802030008B5024B1B681B6D5C
:1049C000019308BD2802030008B5024B1B685B6910
:1049D000019308BD6402030008B5024B1B689B6885
:1049E000019308BD6802030008B5024B1B68DB6831
:1049F000019308BD6802030008B5024B1B68DB6920
:104A0000019308BD3002030008B5024B1B681B6A06
:104A1000019308BD3002030008B5024B1B68DB6838
:104A2000019308BD3C02030008B5024B1B681B69DB
:104A3000019308BD3C02030008B5024B1B685B698B
:104A4000019308BD3C02030008B5024B1B689B693B
:104A5000019308BD3C02030008B5024B1B68DB69EB
:104A6000019308BD3C02030008B5024B1B681B6A9A
:104A7000019308BD3C02030008B5024B1B689B6A0A
:104A8000019308BD3C02030008B5024B1B68DB6ABA
:104A9000019308BD3C02030008B5024B1B681B6C68
:104AA000019308BD3C02030008B5024B1B681B685C
:104AB000019308BD4C02030008B5024B1B685B68FC
:104AC000019308BD4C02030008B5024B1B681B692B
:104AD000019308BD4C02030008B5024B1B685B69DB
:104AE000019308BD4C02030008B5024B1B689B698B
:104AF000019308BD4C02030008B5024B1B68DB693B
:104B0000019308BD4C02030008B5024B1B681B6AE9
:104B1000019308BD4C02030008B5024B1B685B689B
:104B2000019308BD2002030008B5024B1B685B69B6
:104B3000019308BD2002030008B5034B1B68D3F89E
:104B40008830019308BD00002002030008B5034B24
:104B50001B68D3F89430019308BD000020020300C5
:104B600008B5024B1B68DB6B019308BD44020300D0
:104B700008B5024B1B685B68019308BD4002030047
:104B800008B5024B1B689B68019308BD40020300F7
:104B900008B5024B1B68DB68019308BD40020300A7
:104BA00008B5024B1B681B69019308BD4002030056
:104BB00008B5024B1B685B69019308BD4002030006
:104BC00008B5024B1B689B69019308BD40020300B6
:104BD00008B5024B1B68DB69019308BD4002030066
:104BE00008B5024B1B681B6A019308BD4002030015
:104BF00008B5024B1B681B6B019308BD4002030004
:104C000008B5024B1B685B6B019308BD40020300B3
:104C100008B5024B1B681B6C019308BD40020300E2
:104C200008B5024B1B685B6C019308BD4002030092
:104C300008B5024B1B681B68019308BD1C020300EA
:104C400008B5024B1B685B68019308BD1C0203009A
:104C500008B5024B1B681B6C019308BD1C020300C6
:104C600008B5024B1B685B6C019308BD1C02030076
:104C70000021FFF759BF0000024800230360FFF73F
:104C80001BBE00BFB8E60320002240681146FFF7B4
:104C9000A7BF002240681146FFF7B2BF406800225C
:104CA000FFF7A6BF4068002281F00101FFF790BF27
:104CB000002340681A461946FFF782BF0023406868
:104CC0001A461946FFF774BF002240681146FFF7E5
:104CD00067BF002240681146FFF752BF40680022BC
:104CE0000221FFF755BF002340681A46FFF740BF77
:104CF000024B03225A60024A1A607047BCE6032046
:104D000080640B007047F8B5064615460C468F18B0
:104D1000BC4206D0336814F8011B9B6830469847A4
:104D2000F6E72846F8BD007C0022FFF70DBE007CA8
:104D30000021FFF711BE007C0021FFF715BE007CAB
:104D40000021FFF719BE007C0021FFF71DBE10B542
:104D500014210446FFF7A1F9204610BD38B50446DA
:104D600015464FF47A730022C4E90123094B2174DC
:104D7000084623602946FFF717FEBF3008D16B694C
:104D8000DB0705D56868FFF75BFFE868FFF758FFAA
:104D9000204638BDBC640B000023007C1A4619462F
:104DA000FFF7BABD7FB500221423CDE90122ADF88B
:104DB00004300B788DF808304B680393CB6804936C
:104DC000007C0B7A059301A9FFF7F6FD07B05DF8AB
:104DD00004FB1FB5003B8DF800104FF064010391F8
:104DE00018BF0123694601928DF80830FFF7DAFFFA
:104DF00005B05DF804FB0123FFF7EBBF007C002248
:104E0000FFF792BD007C0022FFF796BD0121FFF75E
:104E1000F9BF704710B518210446FFF73EF9204648
:104E200010BDF0B5037D062B8DB00E4600F10407D2
:104E30004FF0000412D000F1080515F8011D0A22F8
:104E4000304600F05EF9AF42044419D0002CF4D093
:104E50002E21304600F03CF90444EEE72F236A4649
:104E600039460A208DF80040FFF7AEFD684601F094
:104E700049FA33680246DB6869463046984704467B
:104E800020460DB0F0BD000010B5054B04461122C0
:104E900040F8043B002101F0FFF9204610BD00BF9F
:104EA000E4640B000346074A10B543F8042B01F1F4
:104EB000100251F8044B43F8044B9142F9D10A789F
:104EC0001A7010BDE4640B0010B59DF8084044EA68
:104ED000032343EA024242EA01610423416003756D
:104EE00010BD000007B5064B0360CB7800938B78AC
:104EF0004A780978FFF7E8FF03B05DF804FB00BFCC
:104F0000E4640B00014B024A1A607047C4E60320B8
:104F1000F0640B00002340681A46FFF729BE406882
:104F200000220221FFF734BE002240681146FFF73D
:104F300027BE002240681146FFF732BE00234068BA
:104F40001A461946FFF734BE002340681A46194630
:104F5000FFF736BE40680021FFF75ABE40680021C7
:104F6000FFF75EBE4068002281F00101FFF730BE0E
:104F700040680022FFF73CBE002240681146FFF760
:104F80003FBE002240681146FFF72ABE2DE9F043DC
:104F900095B014460D460746FFF776FF00211C2208
:104FA0000DA8009101F078F940230C9320466B4640
:104FB0000CAA0021FFF718FD044600284BD1024639
:104FC00001216868FFF7ECFD0221804622466868EF
:104FD000FFF7E6FD009E81462146002E3BD00029CA
:104FE00039D17368022B03D00A2B11D0F669F4E78C
:104FF000B8F1000FFAD0716906A8043107ADFFF7C8
:1050000071FF0FCD3C1D0FC42B6823704146EDE7A7
:10501000B9F1000FEAD07469102201A801F03CF93F
:1050200006238DF8143001AD04F108031834186814
:1050300059682A4603C20833A3421546F7D101A98D
:1050400006A807ADFFF72EFF0FCD3C1D0FC42B6840
:1050500023704946CAE70098FFF7BEFC384615B0F2
:10506000BDE8F083024B034A1A6000225A60704781
:10507000C8E60320FC640B00F8B506460D468F1801
:105080000024BD420CD0336815F8011B9B683046E4
:105090009847031E01DB1C44F3E7002C08BF1C46A5
:1050A0002046F8BD13B50446084659B1019101F0F8
:1050B00029F923680199DB680246204602B0BDE861
:1050C0001040184702B010BD08B5FFF7EBFF08BD50
:1050D00003689B68184738B50D210546FFF7F8FFB0
:1050E0000A2104462846FFF7F3FF204438BD38B5AF
:1050F0000546FFF7D7FF04462846FFF7ECFF20449C
:1051000038BD30B58BB00023012A8DF8243098BF0C
:105110000A2209AC0D46B1FBF2F101FB125303F078
:10512000FF03092B94BF30333733DBB2AA4204F8B4
:10513000013DEFD92146FFF7B5FF0BB030BD0000B0
:105140002DE9F74F55EC104B06460F4610EE102A8E
:1051500010EE100A2B46294600F0DCFF40B15349FF
:105160003046FFF79FFF8246504603B0BDE8F08F00
:1051700025F000494E4B4FF0FF322046494600F0E3
:10518000C9FF48B94A4B4FF0FF322046494600F06C
:10519000A3FF08B94749E3E7474B4FF06042204679
:1051A000294600F0ADFF08B14449D9E7444B4FF020
:1051B00060422046294600F085FF0028F4D10022F5
:1051C00000232046294600F07DFFD0B12D21304636
:1051D000FFF77EFF05F1004382461D463949DFF89F
:1051E000EC904FF0000B00204FF000085FFA8BF3BB
:1051F0009F4208D942464B4600F01CFE0BF1010BC2
:10520000F4E78246EAE722462B4600F033FB0D46E0
:10521000044600F0BDFF804600F068FC02460B46E5
:105220002046294600F024FB0A2204460D4630465B
:105230004146FFF766FF8244002F95D02249DFF8F0
:105240008C903046FFF72EFF4FF000088244002F6D
:105250008AD042464B462046294600F0C1FC04460F
:105260000D4600F06DFFB0F1000B1CDA2D21304629
:10527000FFF72EFFCBF1000103460A2230460193CF
:10528000FFF73FFF019B18448244584600F03EFC64
:1052900002460B462046294600F0EAFA013F044642
:1052A0000D46FFB2D3E759460023E6E730650B0011
:1052B000FFFFEF7F34650B00FFFFEF4138650B0008
:1052C000FFFFEFC10000E03F3C650B000000244001
:1052D00038B5044610EE100ACDB200F029FC41ECBE
:1052E000100B29462046BDE83840FFF729BF0000D3
:1052F000014B00229A607047D0E6032010B50446A7
:1053000008462170FFF778FB00236360204610BD3C
:10531000054B02221A60054B054A9A600020C3E93A
:105320000000FFF7F9BB00BFECE60320E0E6032036
:105330000000FFFF024B1A68024B1A60704700BF63
:10534000F4E50320F0E6032070474174704708B588
:10535000007CFFF791FB20EAE07008BD08B5007CF7
:10536000FFF762FB20EAE07008BD08B5007CFFF79C
:105370006BFB40EAE07008BD08B5007CFFF75CFB02
:1053800040EAE07008BD007CFFF766BB37B5457C9E
:1053900004462DB1207C03B0BDE83040FFF73CBB94
:1053A000007C0191FFF768FB00280199F2DC284698
:1053B00003B030BD10B514210446FEF76EFE204642
:1053C00010BD000010B54FF47A730446084611462C
:1053D0000022C4E90123044B236001232074637479
:1053E000FFF75AFB204610BD64650B00007C0023CC
:1053F000FFF74ABB0022FFF7F9BF417470477047BF
:10540000704708B50021007CFFF76EFB40EAE070B2
:1054100008BD08B50121007CFFF766FB40EAE0709B
:1054200008BD08B5007CFFF757FB20EAE07008BD17
:1054300008B5007CFFF748FB20EAE07008BD13B513
:105440000446007C0191FFF747FB0028019901DC2D
:10545000607C20B1207CFFF74FFB20EAE07002B0B7
:1054600010BD007CFFF750BB10B514210446FEF7B9
:1054700014FE204610BD000010B54FF47A730446A8
:1054800008460021C4E90113044B23600123207462
:1054900063741146FFF708FB204610BD94650B00AE
:1054A000007C0022FFF708BB10B51422044600213F
:1054B00000F0F2FE204610BD10B50F4C88B003A8D6
:1054C000FFF7F2FF2178BFF35B8F11F001010FD1DD
:1054D00020460191FEF7E3FD019948B103AA074870
:1054E000FFF7CAFF2046FEF7DFFD054800F0C0FECB
:1054F000024808B010BD00BFF4E60320F8E6032020
:10550000FF530B00002240681146FFF749BB002201
:1055100040681146FFF764BB002240681146FFF760
:105520006FBB40680022FFF763BB4068002281F038
:105530000101FFF74DBB002340681A461946FFF7EB
:105540003FBB002340681A461946FFF731BB0022D3
:1055500040681146FFF714BB406800220221FFF7A4
:1055600017BB002340681A46FFF702BB024B042218
:105570005A60024A1A6070470CE70320C4650B00AA
:10558000014B1860704700BFF8E5032008B50B4BCE
:1055900043B1FFF791FF03681B699847002801DDBD
:1055A000AFF30080064B43B100F038F903681B6984
:1055B0009847002801DDAFF3008008BD000000001F
:1055C0000000000008B5FFF7E1FFFFF78DF9014B80
:1055D000186008BD28E703200548064A064908B5B3
:1055E000121A00F04BFE054B054A1A6008BD00BFB9
:1055F00000F4032004F40320B4660B0000F403203D
:105600001E1C279A07B5002300931A466FF07701F6
:10561000FFF79CFA03B05DF804FB000007B5438870
:105620000A2B08D0502B0BD1094B1B684BB103B090
:105630005DF804EB1847FFF7E5FF03B05DF804FBE6
:10564000002300931A466FF07701FFF77FFAF4E723
:1056500018E7032010B512480021FFF701FB114B9A
:105660001A68114B9A42114B0CBF012200221A708A
:1056700001D0FFF7B1FFFFF727F9044600F014FE51
:105680000B4B13B12046AFF3008000210848FFF711
:1056900067FABDE8104007480021FFF74DBA00BF88
:1056A00081550B0000F403201E1C279A14E70320E9
:1056B000000000001D560B00232813B502D900205E
:1056C00002B010BDA0F10B03022B1AD8174C2178A1
:1056D000BFF35B8F11F001010BD120460191FEF762
:1056E000DEFC019928B11248FFF708FE2046FEF7BC
:1056F000DBFC0F4B1878FFF787F90028DFD101207A
:10570000DEE7012809D800F049F80021007CFFF706
:1057100043F980F00100C0B2D2E709380128EED881
:1057200000F07CF8007CFFF79FF9F2E71CE703200C
:1057300020E7032038B504460D46FFF7DDF8FF28C3
:1057400010D0062804D84D2323FA00F0C30709D44B
:105750002046FFF7B1FF28B129462046BDE8384072
:10576000FFF7D2B838BD704738B50A4B0360012344
:10577000044643610849202000F074F82025606049
:105780000549A560284600F06DF8C4E903052046E8
:1057900038BD00BF18000100F8650B0030B50E4D94
:1057A0002978BFF35B8F11F0010487B011D128462F
:1057B000FEF775FC68B16846FFF7D6FF6A462146DA
:1057C0000648FFF7CBFA2846FEF76EFC044800F0C7
:1057D0004FFD024807B030BD2CE7032030E703201F
:1057E00067570B007047000038B5044614252A4659
:1057F000002100F051FD25804025074925812846DC
:10580000258200F02FF804496060284600F02AF84D
:10581000E060204638BD00BFF8650B0030B50E4D86
:105820002978BFF35B8F11F0010487B011D12846AE
:10583000FEF735FC68B101A8FFF7D6FF01AA2146A3
:105840000648FFF7BFFD2846FEF72EFC044800F08F
:105850000FFD024807B030BD44E7032048E70320AE
:10586000E5570B00FEF717BC81F0004102E000BFD6
:1058700083F0004330B54FEA41044FEA430594EA10
:10588000050F08BF90EA020F1FBF54EA000C55EA4B
:10589000020C7FEA645C7FEA655C00F0E2804FEA1C
:1058A0005454D4EB5555B8BF6D420CDD2C4480EAFE
:1058B000020281EA030382EA000083EA010180EA2E
:1058C000020281EA0303362D88BF30BD11F0004F7C
:1058D0004FEA01314FF4801C4CEA113102D04042B2
:1058E00061EB410113F0004F4FEA03334CEA1333ED
:1058F00002D0524263EB430394EA050F00F0A78005
:10590000A4F10104D5F1200E0DDB02FA0EFC22FAFF
:1059100005F2801841F1000103FA0EF2801843FAF3
:1059200005F359410EE0A5F120050EF1200E012AE4
:1059300003FA0EFC28BF4CF0020C43FA05F3C01822
:1059400051EBE37101F0004507D54FF0000EDCF19B
:10595000000C7EEB00006EEB0101B1F5801F1BD344
:10596000B1F5001F0CD349085FEA30004FEA3C0C48
:1059700004F101044FEA445212F5800F80F09A803E
:10598000BCF1004F08BF5FEA500C50F1000041EB42
:10599000045141EA050130BD5FEA4C0C404141EB46
:1059A0000101013C28BFB1F5801FE9D291F0000F41
:1059B00004BF01460020B1FA81F308BF2033A3F1F0
:1059C0000B03B3F120020CDA0C3208DD02F1140CE7
:1059D000C2F10C0201FA0CF021FA02F10CE002F122
:1059E0001402D8BFC2F1200C01FA02F120FA0CFC1B
:1059F000DCBF41EA0C019040E41AA2BF01EB045164
:105A0000294330BD6FEA04041F3C1CDA0C340EDC61
:105A100004F11404C4F1200220FA04F001FA02F3A4
:105A200040EA030021FA04F345EA030130BDC4F162
:105A30000C04C4F1200220FA02F001FA04F340EA57
:105A40000300294630BD21FA04F0294630BD94F008
:105A5000000F83F4801306BF81F480110134013DEF
:105A60004EE77FEA645C18BF7FEA655C29D094EA60
:105A7000050F08BF90EA020F05D054EA000C04BFDE
:105A80001946104630BD91EA030F1EBF00210020C9
:105A900030BD5FEA545C05D14000494128BF41F068
:105AA000004130BD14F580043CBF01F5801130BDCC
:105AB00001F0004545F0FE4141F470014FF0000057
:105AC00030BD7FEA645C1ABF194610467FEA655C08
:105AD0001CBF0B46024650EA013406BF52EA0335AA
:105AE00091EA030F41F4002130BD00BF90F0000F98
:105AF00004BF0021704730B54FF4806404F13204D4
:105B00004FF000054FF0000150E700BF90F0000F8C
:105B100004BF0021704730B54FF4806404F13204B3
:105B200010F0004548BF40424FF000013EE700BF83
:105B300042004FEAE2014FEA31014FEA02701FBF13
:105B400012F07F4393F07F4F81F06051704732F045
:105B50007F4208BF704793F07F4F04BF41F400219C
:105B6000704730B54FF4607401F0004521F00041FA
:105B70001CE700BF50EA010208BF704730B54FF084
:105B800000050AE050EA010208BF704730B511F085
:105B9000004502D5404261EB41014FF4806404F1BD
:105BA00032045FEA915C3FF4D8AE4FF003025FEA43
:105BB000DC0C18BF03325FEADC0C18BF033202EBC7
:105BC000DC02C2F1200300FA03FC20FA02F001FA21
:105BD00003FE40EA0E0021FA02F11444BDE600BFC4
:105BE00070B54FF0FF0C4CF4E06C1CEA11541DBF73
:105BF0001CEA135594EA0C0F95EA0C0F00F0DEF83E
:105C00002C4481EA030621EA4C5123EA4C5350EA22
:105C1000013518BF52EA033541F4801143F4801373
:105C200038D0A0FB02CE4FF00005E1FB02E506F004
:105C30000042E0FB03E54FF00006E1FB03569CF059
:105C4000000F18BF4EF0010EA4F1FF04B6F5007F5F
:105C500064F5407404D25FEA4E0E6D4146EB0606D1
:105C600042EAC62141EA55514FEAC52040EA5E505A
:105C70004FEACE2EB4F1FD0C88BFBCF5E06F1ED804
:105C8000BEF1004F08BF5FEA500E50F1000041EB3B
:105C9000045170BD06F0004646EA010140EA0200E8
:105CA00081EA0301B4EB5C04C2BFD4EB0C0541EA0A
:105CB000045170BD41F480114FF0000E013C00F31F
:105CC000AB8014F1360FDEBF002001F0004170BD43
:105CD000C4F10004203C35DA0C341BDC04F114045C
:105CE000C4F1200500FA05F320FA04F001FA05F2E8
:105CF00040EA020001F0004221F0004110EBD370B5
:105D000021FA04F642EB06015EEA430E08BF20EAE0
:105D1000D37070BDC4F10C04C4F1200500FA04F383
:105D200020FA05F001FA04F240EA020001F0004115
:105D300010EBD37041F100015EEA430E08BF20EA88
:105D4000D37070BDC4F1200500FA05F24EEA020ED0
:105D500020FA04F301FA05F243EA020321FA04F0FF
:105D600001F0004121FA04F220EA020000EBD370B6
:105D70005EEA430E08BF20EAD37070BD94F0000FB6
:105D80000FD101F00046400041EB010111F4801FEA
:105D900008BF013CF7D041EA060195F0000F18BF9B
:105DA000704703F00046520043EB030313F4801FD7
:105DB00008BF013DF7D043EA0603704794EA0C0F91
:105DC0000CEA135518BF95EA0C0F0CD050EA4106A7
:105DD00018BF52EA4306D1D181EA030101F0004124
:105DE0004FF0000070BD50EA410606BF104619464C
:105DF00052EA430619D094EA0C0F02D150EA013658
:105E000013D195EA0C0F05D152EA03361CBF104698
:105E100019460AD181EA030101F0004141F0FE4137
:105E200041F470014FF0000070BD41F0FE4141F4BB
:105E3000780170BD70B54FF0FF0C4CF4E06C1CEABB
:105E400011541DBF1CEA135594EA0C0F95EA0C0F70
:105E500000F0A7F8A4EB050481EA030E52EA03352B
:105E60004FEA013100F088804FEA03334FF080554C
:105E700045EA131343EA12634FEA022245EA111579
:105E800045EA10654FEA00260EF000419D4208BF2A
:105E9000964244F1FD0404F5407402D25B084FEAD7
:105EA0003202B61A65EB03055B084FEA32024FF483
:105EB00080104FF4002CB6EB020E75EB030E22BFE0
:105EC000B61A754640EA0C005B084FEA3202B6EBA0
:105ED000020E75EB030E22BFB61A754640EA5C004F
:105EE0005B084FEA3202B6EB020E75EB030E22BFDF
:105EF000B61A754640EA9C005B084FEA3202B6EBE0
:105F0000020E75EB030E22BFB61A754640EADC009E
:105F100055EA060E18D04FEA051545EA16754FEA00
:105F200006164FEAC30343EA52734FEAC2025FEA1E
:105F30001C1CC0D111F4801F0BD141EA00014FF0AD
:105F400000004FF0004CB6E711F4801F04BF01437E
:105F50000020B4F1FD0C88BFBCF5E06F3FF6AFAE9A
:105F6000B5EB030C04BFB6EB020C5FEA500C50F12A
:105F7000000041EB045170BD0EF0004E4EEA1131AD
:105F800014EB5C04C2BFD4EB0C0541EA045170BDB4
:105F900041F480114FF0000E013C90E645EA060EF8
:105FA0008DE60CEA135594EA0C0F08BF95EA0C0F26
:105FB0003FF43BAF94EA0C0F0AD150EA01347FF46E
:105FC00034AF95EA0C0F7FF425AF104619462CE745
:105FD00095EA0C0F06D152EA03353FF4FDAE1046A8
:105FE000194622E750EA410618BF52EA43067FF4F9
:105FF000C5AE50EA41047FF40DAF52EA43057FF489
:10600000EBAE12E74FF0FF3C06E000BF4FF0010C93
:1060100002E000BF4FF0010C4DF804CD4FEA410CF7
:106020007FEA6C5C4FEA430C18BF7FEA6C5C1BD0C4
:1060300001B050EA410C0CBF52EA430C91EA030F45
:1060400002BF90EA020F0020704710F1000F91EAA2
:10605000030F58BF994208BF90422CBFD8176FEA70
:10606000E37040F0010070474FEA410C7FEA6C5C3E
:1060700002D150EA013C07D14FEA430C7FEA6C5C45
:10608000D6D152EA033CD3D05DF8040B704700BF71
:106090008446104662468C461946634600E000BFBF
:1060A00001B5FFF7B7FF002848BF10F1000F01BD91
:1060B0004DF808EDFFF7F4FF0CBF012000205DF85C
:1060C00008FB00BF4DF808EDFFF7EAFF34BF0120E1
:1060D00000205DF808FB00BF4DF808EDFFF7E0FF7A
:1060E00094BF012000205DF808FB00BF4DF808EDCB
:1060F000FFF7CEFF94BF012000205DF808FB00BF32
:106100004DF808EDFFF7C4FF34BF012000205DF813
:1061100008FB00BF4FEA410C7FEA6C5C02D150EAF9
:10612000013C0AD14FEA430C7FEA6C5C02D152EA8F
:10613000033C02D14FF0000070474FF00100704760
:106140004FEA410212F5001215D211D56FF478739F
:10615000B3EB625212D94FEAC12343F0004343EA42
:10616000505311F0004F23FA02F018BF404270471D
:106170004FF00000704750EA013005D111F00040A7
:1061800008BF6FF0004070474FF00000704700BF3D
:106190004A0011D212F5001211D20DD56FF47873A6
:1061A000B3EB62520ED44FEAC12343F0004343EAFB
:1061B000505323FA02F070474FF00000704750EA46
:1061C000013002D14FF0FF3070474FF000007047B0
:1061D0004FEA4102B2F1E04324BFB3F5001CDCF109
:1061E000FE5C0DD901F0004C4FEAC0024CEA507041
:1061F000B2F1004F40EB830008BF20F00100704770
:1062000011F0804F21D113F13872BCBF01F0004072
:10621000704741F480114FEA5252C2F11802C2F1A4
:10622000200C10FA0CF320FA02F018BF40F0010025
:106230004FEAC1234FEAD32303FA0CFC40EA0C00D7
:1062400023FA02F34FEA4303CCE77FEA625307D114
:1062500050EA01331EBF4FF0FE4040F4400070474B
:1062600001F0004040F0FE4040F40000704700BFE5
:10627000002301461A46184600F04CB80A449142E1
:1062800000F1FF3300D1704710B511F8014B03F84E
:10629000014F9142F9D110BD02440346934200D10F
:1062A000704703F8011BF9E738B5104B1D68AB6B5D
:1062B0000446B3B91820FEF7BBFC0246A86320B918
:1062C0000B4B0C484221FEF7C3FC0B490B4BC0E9BA
:1062D00000130B4B83600B23838100210120C2E953
:1062E0000401AB6B00221C615A6138BDF8E5032044
:1062F000F9650B0010660B000E33CDAB34126DE662
:10630000ECDE0500034613F8012B002AFBD1181A16
:10631000013870472DE9F843DFF8B8800646D8F811
:1063200000001F460D46914600F056F8254B1C68AC
:1063300034B9254C1C60254B13B11B68C4F8883058
:1063400063681F2B07DDD8F8000000F047F84FF016
:10635000FF30BDE8F8834EB3D4F8880088B91C4BF1
:1063600023B9D8F8000000F038F8F0E74FF4847053
:10637000FEF75EFC0028F4D00023C0E94033C4F8E7
:106380008800636840F8239001229A4000EB830163
:10639000D0F800311343C0F80031022EC1F88070EC
:1063A00002BFD0F804311343C0F804316368D8F851
:1063B00000005A1C0233626044F8235000F00EF8CB
:1063C0000020C6E7E8E703205CE7032000000000A8
:1063D000314C0B005CE603207047704770470000AB
:1063E00021400B005D400B0085400B0089400B00F5
:1063F000000000002053656E736F7220696E69742F
:1064000069616C697A65206661696C656421210047
:106410002053656E736F722020696E697469616CB8
:10642000697A652073756363657373212100646104
:1064300074613A00414C533A004C757800000000FA
:1064400001030609120000000000000000001040D7
:106450000000000000000040000000000000F03FCD
:10646000000000000000E03F000000000000D03FFE
:10647000000000000000A03F00000000000000003D
:10648000E74C0B00DD4C0B00D34C0B00C94C0B0050
:10649000BD4C0B00B14C0B00554F0B005D4F0B007A
:1064A000A54C0B009D4C0B00934C0B00894C0B0032
:1064B0008D4F0B000000000000000000054D0B0098
:1064C0004F4D0B00274D0B00074D0B002F4D0B00C0
:1064D000374D0B003F4D0B00474D0B0000000000F7
:1064E00000000000234E0B00134E0B00154E0B0056
:1064F000617070000000000000000000154F0B00EC
:106500001F4F0B00294F0B00334F0B003D4F0B006B
:10651000494F0B00554F0B005D4F0B00654F0B00B3
:10652000714F0B00794F0B00834F0B008D4F0B0009
:106530006E616E00696E66006F7666002E002559EA
:106540002D256D2D25645425483A254D3A25532592
:106550007A0061736374696D6500000000000000DB
:106560000000000049530B00B5530B008D530B0086
:1065700079500B005D530B0079530B006B530B00EC
:1065800087530B004B530B004F530B0000000000D0
:106590000000000001540B0069540B003F540B0035
:1065A00079500B0031540B0003540B0013540B00B3
:1065B00063540B0023540B00FB530B00000000003E
:1065C0000000000063550B0059550B004F550B00A0
:1065D00005550B0043550B0037550B00554F0B006D
:1065E0005D4F0B002B550B0023550B0019550B006D
:1065F0000F550B008D4F0B00005245454E54206D3A
:10660000616C6C6F632073756363656564656400BA
:106610002F746D702F6A656E6B696E732D474343DF
:106620002D31302D706970656C696E652D34385F61
:1066300032303230313132345F3136303631383009
:106640003633392F7372632F6E65776C69622F6EE4
:1066500065776C69622F6C6962632F7374646C690F
:10666000622F72616E642E630000000095410B0082
:10667000794C0B00F14C0B00054F0B0065500B00E3
:10668000F1520B0011530B0035530B006D550B00ED
:10669000040000001400000003000000474E5500F5
:1066A00080FCE21F3AC8C8E1507372BC939C6A7ABE
:0466B00082ED9D6E6C
:0466B40000000000E2
:1066B80052650B00FCE5032000000000000000000C
:1066C80000000000000000000000000000000000C2
:1066D80000000000000000000000000000000000B2
:1066E80000000000000000000000000000000000A2
:1066F8000000000000000000000000000000000092
:106708000000000000000000000000000000000081
:0C6718000000000000000000ECE703207F
:10672400FFFFFFFF00000102030405060708090A32
:106734000B0C0D0E0F101112131415161718191A2D
:086744001B1C1D1E1F20280074
:04674C007856341235
:04000003B0004020E9
:00000001FF
