:02000004085F93
:10E0000000E05F08FCFF5F0800000600200005013B
:08E010000401181500000000D6
:10E018000E480F4908B5884205D00E4A824202D000
:10E028000D4B121A98470D480D4A00210D4B121A34
:10E0380098470D480D49884205D00D4A824202D0C2
:10E04800054B121A9847014808BD00BFF0AD0710EC
:10E05800FCF85F0868AE07102D0D111068AE0710A8
:10E06800E8AF0710A10E111080E73F0288E05F08B3
:0CE07800F4FF3F0219E05F080000000008
:08E088007CE05F088CFD3F0203
:10E09000034613F8012B002AFBD1181A01387047E8
:10E0A00070B501F0B1F80025054E064CA41BA4087C
:10E0B000AC4200D170BD56F8043B98470135F7E7F4
:10E0C000D0FF3F02F4FF3F0200F014B808B500F0A3
:10E0D00079F8BDE8084001F04FB800F035BC00F019
:10E0E00041BC0078B0FA80F040097047012303700A
:10E0F0007047000010B500F0AFFF4FF4165100F06C
:10E100009FFF00F0CFF8044628B100F0A5FF0749B3
:10E1100000F086FEFEE71421052000F0FFF82146FE
:10E12000BDE81040082001F0DFB800BF9CFD3F02B1
:10E130002DE9F743002425461D4F1E4EDFF87C9045
:10E14000DFF87C803C603460D9F80000A04206DD36
:10E15000B8F8000001F0D9F801340544F4E764236D
:10E1600095FBF0F040F23A7240F6A661009300236E
:10E17000386000F021FC306000F06EFF3468054626
:10E18000002C13DA2D2100F04FFE61420A222846AE
:10E1900000F063FE00F060FF074900F054FE41F21A
:10E1A000883003B0BDE8F04300F012BC2146EDE733
:10E1B00074AE071078AE0710A8FD3F02F4AD07104B
:10E1C000F8AD0710FFF7B4BF0022044B0220C3E9EB
:10E1D0000022A2F580329A6000F0C8BA68AE07103B
:10E1E000012208B5044B1A70044B187001F0BAF8FC
:10E1F000BDE8084000F080BC7CAE07107DAE071083
:10E2000038B50C46054601F0ADF80B4B197800F017
:10E21000A2FC01F0A7F8036829469B68984701F023
:10E22000A1F8036821469B68984701F09BF8BDE878
:10E23000384000F098BC00BF7DAE071070B5134D9C
:10E24000044601F08FF8297800F085FC01F08AF887
:10E25000036821469B68984701F084F800F083FC2E
:10E2600001F080F8012329781A4600F062FC01F0E1
:10E2700079F803681B69984730B101F073F8BDE87D
:10E28000704003685B69184770BD00BF7DAE071022
:10E2900008B500F0E1FE4FF4E13100F0D1FE0020BE
:10E2A00008BD000038B5FFF7F3FF5320FFF798FFD4
:10E2B00000F0D2FE174900F0B3FD0620FFF7BEFFC5
:10E2C000044600F0C9FE0546E4B20A22214600F0E9
:10E2D000C4FD284600F0ABFDB22C10D000F0BCFE0F
:10E2E0000D4900F09DFD00F0B7FE054610222146C5
:10E2F00000F0B3FD284600F09AFD012038BD222130
:10E300000420FFF77DFF05200121FFF779FF0020A2
:10E31000F4E700BFABFD3F02C4FD3F0238B50D4638
:10E320000446C9B22120FFF76BFFC5F30721222065
:10E33000FFF766FFC5F303412320FFF761FFE1B25A
:10E340002420FFF75DFFC4F307212520FFF758FFC6
:10E35000C4F303412620BDE83840FFF751BF000059
:10E3600009B504480068044B03441B685B6C0293C6
:10E3700009BD0000F0AD07103000000009B50448E9
:10E380000068044B03441B685B68029309BD0000EE
:10E39000F0AD07100000000009B504480068044B08
:10E3A00003441B685B69029309BD0000F0AD0710D0
:10E3B0000000000009B504480068044B03441B68D2
:10E3C0005B68029309BD0000F0AD07101400000067
:10E3D00009B504480068044B03441B689B6802931A
:10E3E00009BD0000F0AD07101400000009B5044895
:10E3F0000068044B03441B681B6B029309BD0000BB
:10E40000F0AD07101400000009B504480068044B83
:10E4100003441B68DB68029309BD0000F0AD0710E0
:10E420001000000009B504480068044B03441B6851
:10E430009B69029309BD0000F0AD071010000000B9
:10E4400009B504480068044B03441B68DB69029368
:10E4500009BD0000F0AD07101000000009B5044828
:10E460000068044B03441B681B6A029309BD00004B
:10E47000F0AD07101000000009B504480068044B17
:10E4800003441B685B6A029309BD0000F0AD0710EE
:10E490001000000009B504480068044B03441B68E1
:10E4A0009B6A029309BD0000F0AD07101000000048
:10E4B00009B504480068044B03441B68DB6A0293F7
:10E4C00009BD0000F0AD07101000000009B50448B8
:10E4D0000068044B03441B681B6B029309BD0000DA
:10E4E000F0AD07101000000009B504480068044BA7
:10E4F00003441B685B6B029309BD0000F0AD07107D
:10E500001000000009B504480068044B03441B6870
:10E510001B6C029309BD0000F0AD07101000000055
:10E5200009B504480068044B03441B681B6D029343
:10E5300009BD0000F0AD07101000000009B5044847
:10E540000068044B03441B685B69029309BD00002B
:10E55000F0AD07104C00000009B504480068044BFA
:10E5600003441B689B68029309BD0000F0AD0710CF
:10E570005000000009B504480068044B03441B68C0
:10E58000DB68029309BD0000F0AD071050000000E9
:10E5900009B504480068044B03441B68DB69029317
:10E5A00009BD0000F0AD07101800000009B50448CF
:10E5B0000068044B03441B681B6A029309BD0000FA
:10E5C000F0AD07101800000009B504480068044BBE
:10E5D00003441B68DB68029309BD0000F0AD07101F
:10E5E0002400000009B504480068044B03441B687C
:10E5F0001B69029309BD0000F0AD07102400000064
:10E6000009B504480068044B03441B685B69029326
:10E6100009BD0000F0AD07102400000009B5044852
:10E620000068044B03441B689B69029309BD00000A
:10E63000F0AD07102400000009B504480068044B41
:10E6400003441B68DB69029309BD0000F0AD0710AD
:10E650002400000009B504480068044B03441B680B
:10E660001B6A029309BD0000F0AD071024000000F2
:10E6700009B504480068044B03441B689B6A029375
:10E6800009BD0000F0AD07102400000009B50448E2
:10E690000068044B03441B681B6C029309BD000017
:10E6A000F0AD07102400000009B504480068044BD1
:10E6B00003441B681B68029309BD0000F0AD0710FE
:10E6C0003400000009B504480068044B03441B688B
:10E6D0005B68029309BD0000F0AD07103400000034
:10E6E00009B504480068044B03441B681B69029386
:10E6F00009BD0000F0AD07103400000009B5044862
:10E700000068044B03441B685B69029309BD000069
:10E71000F0AD07103400000009B504480068044B50
:10E7200003441B689B69029309BD0000F0AD07100C
:10E730003400000009B504480068044B03441B681A
:10E74000DB69029309BD0000F0AD07103400000042
:10E7500009B504480068044B03441B681B6A029314
:10E7600009BD0000F0AD07103400000009B50448F1
:10E770000068044B03441B685B68029309BD0000FA
:10E78000F0AD07100800000009B504480068044B0C
:10E7900003441B685B69029309BD0000F0AD0710DC
:10E7A0000800000009B504480068044B03441B68D6
:10E7B000D3F88830029309BDF0AD071008000000BF
:10E7C00009B504480068044B03441B68D3F894302F
:10E7D000029309BDF0AD07100800000009B5044818
:10E7E0000068044B03441B68DB6B029309BD000007
:10E7F000F0AD07102C00000009B504480068044B78
:10E8000003441B685B68029309BD0000F0AD07106C
:10E810002800000009B504480068044B03441B6845
:10E820009B68029309BD0000F0AD071028000000AE
:10E8300009B504480068044B03441B68DB68029375
:10E8400009BD0000F0AD07102800000009B504481C
:10E850000068044B03441B681B69029309BD000058
:10E86000F0AD07102800000009B504480068044B0B
:10E8700003441B685B69029309BD0000F0AD0710FB
:10E880002800000009B504480068044B03441B68D5
:10E890009B69029309BD0000F0AD0710280000003D
:10E8A00009B504480068044B03441B68DB69029304
:10E8B00009BD0000F0AD07102800000009B50448AC
:10E8C0000068044B03441B681B6A029309BD0000E7
:10E8D000F0AD07102800000009B504480068044B9B
:10E8E00003441B681B6B029309BD0000F0AD0710C9
:10E8F0002800000009B504480068044B03441B6865
:10E900005B6B029309BD0000F0AD0710280000000A
:10E9100009B504480068044B03441B681B6C029350
:10E9200009BD0000F0AD07102800000009B504483B
:10E930000068044B03441B685B6C029309BD000034
:10E94000F0AD07102800000009B504480068044B2A
:10E9500003441B681B68029309BD0000F0AD07105B
:10E960000400000009B504480068044B03441B6818
:10E970005B68029309BD0000F0AD071004000000C1
:10E9800009B504480068044B03441B681B6C0293E0
:10E9900009BD0000F0AD07100400000009B50448EF
:10E9A0000068044B03441B685B6C029309BD0000C4
:10E9B000F0AD0710040000008A4210B507D0441AD9
:10E9C0000298C01A4443501A94FBF0F0184410BD4A
:10E9D0000021FFF7D9BE0000002302480360FFF7C3
:10E9E000BFBC00BF80AE0710002240681146FFF791
:10E9F00065BF002240681146FFF77CBF00224068D7
:10EA0000FFF76ABF0022406881F00101FFF748BFAD
:10EA1000002340681A461946FFF734BF00234068B8
:10EA20001A461946FFF720BF002240681146FFF73B
:10EA30000DBF002240681146FFF7ECBE0022022104
:10EA40004068FFF7F5BE002340681A46FFF7D4BEC2
:10EA50000322024B5A60024A1A60704784AE0710C4
:10EA6000F4FD3F027047F8B5064615460C468F1870
:10EA7000BC4206D0336830469B6814F8011B9847A7
:10EA8000F6E72846F8BD0022007CFFF7E7BC00212E
:10EA9000007CFFF7F1BC0021007CFFF7FBBC0021EC
:10EAA000007CFFF705BD0021007CFFF70FBD10B50E
:10EAB00004461421FFF713FB204610BD38B5044669
:10EAC00015464FF47A730022C4E90123094B084626
:10EAD000217423602946FFF715FDBF3008D16B690B
:10EAE000DB0705D56868FFF73DFFE868FFF73AFFE9
:10EAF000204638BD30FE3F020023007C1A461946EE
:10EB0000FFF782BC7FB500221423CDE90122ADF8C6
:10EB100004300B78007C8DF808304B680393CB6889
:10EB200004930B7A01A90593FFF7FAFC07B05DF88F
:10EB300004FB1FB5003B8DF800104FF0640118BFB7
:10EB400001230391694601928DF80830FFF7DAFF3F
:10EB500005B05DF804FB0022007CFFF763BC0022D7
:10EB6000007CFFF76DBC0121FFF7F9BF704710B5BE
:10EB700004461821FFF7B3FA204610BDF0B5037D17
:10EB80000E46062B4FF000048DB000F1040712D0A2
:10EB900000F1080515F8011D0A22304600F05DF964
:10EBA000AF42044419D0002CF4D02E21304600F09E
:10EBB0003BF90444EEE72F236A4639460A208DF8D4
:10EBC0000040FFF7BBFC6846FFF762FA3368024675
:10EBD00069463046DB689847044620460DB0F0BDD4
:10EBE00010B50446044B1122002140F8043B00F00C
:10EBF000B2FC204610BD00BF58FE3F020346074A44
:10EC000010B543F8042B01F1100251F8044B914266
:10EC100043F8044BF9D10A781A7010BD58FE3F0230
:10EC200010B59DF8084044EA032343EA0242042356
:10EC300042EA01614160037510BD000007B5064B53
:10EC40000360CB7800938B784A780978FFF7E8FF68
:10EC500003B05DF804FB00BF58FE3F02014B024ABF
:10EC60001A6070478CAE071064FE3F0200234068B4
:10EC70001A46FFF7C1BD002202214068FFF7D8BD48
:10EC8000002240681146FFF7C5BD002240681146CA
:10EC9000FFF7DCBD002340681A461946FFF7E4BDC4
:10ECA000002340681A461946FFF7ECBD0021406872
:10ECB000FFF72EBE00214068FFF738BE00224068F3
:10ECC00081F00101FFF7ECBD00224068FFF704BEB0
:10ECD000002240681146FFF70DBE00224068114631
:10ECE000FFF7ECBD2DE9F04395B014460D460746FD
:10ECF000FFF776FF00211C220DA8009100F02BFCED
:10ED0000402320460C9300216B460CAAFFF732FCEF
:10ED1000044600284BD1024601216868FFF796FDA2
:10ED20000221804622466868FFF790FD2146814611
:10ED3000009E002E3BD0002939D17368022B03D0EE
:10ED40000A2B11D0F669F4E7B8F1000FFAD0716917
:10ED500006A804313C1D07ADFFF770FF0FCD0FC4AF
:10ED60002B6841462370EDE7B9F1000FEAD010227D
:10ED700001A8746900F0EFFB062301AD8DF8143093
:10ED800004F1080318342A4618685968083303C286
:10ED9000A3421546F7D101A906A83C1D07ADFFF710
:10EDA0002DFF0FCD0FC42B6849462370CAE700988A
:10EDB000FFF7D2FB384615B0BDE8F083024B034A9B
:10EDC0001A6000225A60704790AE071070FE3F0232
:10EDD000F8B506460D4600248F18BD420CD03368A6
:10EDE00030469B6815F8011B9847031E01DB1C4445
:10EDF000F3E7002C08BF1C462046F8BD13B50446B7
:10EE0000084659B10191FFF743F9024620462368AD
:10EE10000199DB6802B0BDE81040184702B010BD90
:10EE200008B5FFF7EBFF08BD03689B68184738B5C6
:10EE30000D210546FFF7F8FF0A2104462846FFF793
:10EE4000F3FF204438BD38B50546FFF7D7FF044629
:10EE50002846FFF7ECFF204438BD0023012A98BF65
:10EE60000A2230B58BB08DF8243009AC0D46B1FBC9
:10EE7000F2F101FB125303F0FF03092B94BF30336F
:10EE80003733DBB2AA4204F8013DEFD92146FFF740
:10EE9000B5FF0BB030BD00000022014B9A607047F7
:10EEA00098AE071010B5044608462170FFF770FBB6
:10EEB00000232046636010BD02220020044B1A602C
:10EEC000044B054AC3E900009A60FFF74FBC00BF3E
:10EED000B4AE0710A8AE07100000FFFF024B1A687F
:10EEE000024B1A60704700BFFCAD0710B8AE0710A8
:10EEF00070474174704708B5007CFFF7B9FB20EA02
:10EF0000E07008BD08B5007CFFF76CFB20EAE070FC
:10EF100008BD08B5007CFFF781FB40EAE07008BD42
:10EF200008B5007CFFF76CFB40EAE07008BD007C90
:10EF3000FFF782BB37B5457C04462DB1207C03B07A
:10EF4000BDE83040FFF740BB007C0191FFF790FB2C
:10EF500000280199F2DC284603B030BD10B5044604
:10EF60001421FFF7BCF8204610BD000010B54FF487
:10EF70007A730446084611460022C4E90123044B73
:10EF80002074236001236374FFF780FB204610BDCB
:10EF9000C8FE3F02007CFFF75DBB417470477047BD
:10EFA000704708B50021007CFFF7B6FB40EAE0702F
:10EFB00008BD08B50121007CFFF7AEFB40EAE07018
:10EFC00008BD08B5007CFFF799FB20EAE07008BD9A
:10EFD00008B5007CFFF784FB20EAE07008BD13B59C
:10EFE0000446007C0191FFF789FB0028019901DCB0
:10EFF000607C20B1207CFFF79DFB20EAE07002B02E
:10F0000010BD007CFFF7A4BB10B504461421FFF728
:10F0100066F8204610BD000010B54FF47A73044620
:10F0200008460021C4E90113044B20742360012326
:10F0300011466374FFF738FB204610BDF8FE3F020F
:10F040000022007CFFF73EBB10B5044614220021CD
:10F0500000F081FA204610BD10B588B003A8FFF774
:10F06000F3FF0C4CD4E88F1F11F001010FD12046A3
:10F070000191FFF736F8019948B103AA0648FFF756
:10F08000CBFF2046FFF732F8044800F051FA02485F
:10F0900008B010BDBCAE0710C0AE071097F63F0217
:10F0A000002240681146FFF7D1BB0022406811469C
:10F0B000FFF704BC002240681146FFF71BBC00228A
:10F0C0004068FFF709BC0022406881F00101FFF7AA
:10F0D000E7BB002340681A461946FFF7D3BB00235D
:10F0E00040681A461946FFF7BFBB00224068114628
:10F0F000FFF790BB002202214068FFF799BB002375
:10F1000040681A46FFF778BB0422024B5A60024A55
:10F110001A607047D4AE071028FF3F02014B1860F9
:10F12000704700BF00AE071008B50F4B43B1FFF7A3
:10F1300093FF03681B699847002801DD00E000BFCA
:10F140000A4B43B100F062F903681B699847002835
:10F1500001DD00E000BF064B0BB100F09DF9054B4F
:10F160000BB100F0CFF908BD000000000000000066
:10F17000000000000000000008B5FFF7D5FFFFF712
:10F180000BF9014B186008BDF0AE07100548064AA0
:10F1900008B5121A054900F0D1F9054B054A1A6065
:10F1A00008BD00BF00B4071004B4071074F95F086D
:10F1B00000B407101E1C279A002307B51A466FF0EB
:10F1C00077010093FFF7FCFA03B05DF804FB000041
:10F1D00007B543880A2B08D0502B0BD1094B1B686D
:10F1E0004BB103B05DF804EB1847FFF7E5FF03B040
:10F1F0005DF804FB00231A466FF077010093FFF7D8
:10F20000DFFAF4E7E0AE0710002110B51148FFF770
:10F21000C5FB114B1A68114B9A420CBF0122002208
:10F220000F4B1A7001D0FFF7B1FFFFF7A7F80446A4
:10F2300000F09AF90B4B13B1204600E000BF00210B
:10F240000848FFF7CBFABDE8104000210648FFF759
:10F25000A9BA00BF15F83F0200B407101E1C279A78
:10F26000DCAE071000000000C9F83F021B2837B5CC
:10F27000044602D9002003B030BDA0F10F03022BD9
:10F280000BD9012821D800F06DF80021007CFFF790
:10F290002BF980F00100C0B2EDE7114DD5E88F1FCA
:10F2A00011F001010BD128460191FEF71AFF0199D7
:10F2B00028B10C48FFF7F6FD2846FEF717FF094B6B
:10F2C0001878FFF773F90028D4D1083C012C05D831
:10F2D00000F09CF8007CFFF7BDF9DAE70120CAE7EF
:10F2E000E4AE0710E8AE07101B2838B504460D46FB
:10F2F0000AD8FF2908D0FFF7B9FF28B129462046D0
:10F30000BDE83840FFF764B838BD10B50446FFF7D4
:10F31000ADFF50B103212046FFF74CF8032804D17C
:10F320002046BDE81040FFF761B8002010BD7047CF
:10F3300038B50A4B04460360012309494361202084
:10F3400000F0F4F82025606005492846A56000F02B
:10F35000EDF8C4E90305204638BD00BF18000100E0
:10F360005CFF3F0230B50E4D87B0D5E88F1F11F01E
:10F37000010411D12846FEF7B4FE68B16846FFF7D4
:10F38000D7FF6A4621460748FFF798FB2846FEF755
:10F39000ADFE054800F0CCF8024807B030BD00BF14
:10F3A000F4AE0710F8AE071027FA3F0270470000CE
:10F3B00038B5142504462A46002100F0CCF82580F3
:10F3C0004025074928462581258200F0AFF80449E9
:10F3D0006060284600F0AAF8E060204638BD00BF13
:10F3E0005CFF3F027047704710B50446FFF7E0FF2F
:10F3F000204610BD10B50446FFF7DAFF204610BDC9
:10F4000010B50446FFF7D4FF204610BD30B50E4DB1
:10F4100087B0D5E88F1F11F0010411D12846FEF7FF
:10F4200060FE68B101A8FFF7DFFF214601AA074887
:10F43000FFF79CFD2846FEF759FE054800F078F8D6
:10F44000024807B030BD00BF0CAF071018AF07105F
:10F45000A5FA3F0210B50D4C86B0D4E88F3FDB070C
:10F4600011D42046FEF73DFE68B101A8FFF7C2FFA8
:10F47000012101AA0648FFF779FD2046FEF736FE76
:10F48000044800F055F8024806B010BD10AF071050
:10F490002CAF0710DFFA3F0210B5FFF7DBFF074B79
:10F4A000044653B1FFF776FD38B1236820461B6947
:10F4B0009847002801DD00E000BF10BD00000000FB
:10F4C00010B50D4C86B0D4E88F3FDB0711D4204631
:10F4D000FEF707FE68B101A8FFF792FF022101AA1B
:10F4E0000648FFF743FD2046FEF700FE044800F003
:10F4F0001FF8024806B010BD14AF071040AF071048
:10F50000DDFA3F0210B5FFF7DBFF074B044653B1AE
:10F51000FFF740FD38B1236820461B699847002853
:10F5200001DD00E000BF10BD00000000FEF7D5BD0A
:10F53000002301461A46184600F044B80A44431E08
:10F54000914200D1704710B511F8014B914203F878
:10F55000014FF9D110BD02440346934200D17047D8
:10F5600003F8011BF9E7000038B5104B04461D688D
:10F57000AB6BB3B91820FFF7E7F90246A86320B9CF
:10F580000B4B42210B48FFF7FBF90B490B4BC0E932
:10F5900000130B4B002183600B2383810120C2E900
:10F5A0000401AB6B00221C615A6138BD00AE07102C
:10F5B0005DFF3F0274FF3F020E33CDAB34126DE6A8
:10F5C000ECDE05002DE9F843DFF8BC8006461F4657
:10F5D0000D46D8F80000914600F058F8264B1C68FC
:10F5E00034B9264C1C60264B13B11B68C4F8883014
:10F5F00063681F2B07DDD8F8000000F049F84FF0D2
:10F60000FF30BDE8F8835EB3D4F8880088B91D4B9D
:10F6100023B9D8F8000000F03AF8F0E74FF484700E
:10F62000FFF792F90028F4D00023C0E94033C4F872
:10F63000880063680122022E40F8239002FA03F248
:10F6400000EB8301D0F8003143EA0203C0F8003137
:10F65000C1F8807002BFD0F804311343C0F8043100
:10F660006368D8F800005A1C0233626044F82350E3
:10F6700000F00EF80020C4E7E0AF071054AF071009
:10F680000000000041F03F0264AE07107047704771
:10F690007047000099E73F02C1E73F02C5E73F021C
:10F6A00000000000696E69742065727221212100DA
:10F6B0002025004C545233393020564F4320536597
:10F6C0006E736F7220496E69740D0A00666561740D
:10F6D000757265207365742073686F756C64203D66
:10F6E00020302C206275742076616C203D203058CB
:10F6F0000000000000000000000000003FF13F0299
:10F7000035F13F022BF13F0221F13F0215F13F029B
:10F7100009F13F02A5F33F02ADF33F02FDF03F02C6
:10F72000F5F03F02EBF03F02E1F03F02DDF33F0274
:10F7300000000000000000005DF13F02A7F13F0261
:10F740007FF13F025FF13F0287F13F028FF13F02FD
:10F7500097F13F029FF13F0200000000000000000F
:10F7600075F23F0265F23F0267F23F02617070007E
:10F77000000000000000000065F33F026FF33F024D
:10F7800079F33F0283F33F028DF33F0299F33F0287
:10F79000A5F33F02ADF33F02B5F33F02C1F33F02D1
:10F7A000C9F33F02D3F33F02DDF33F0225592D2574
:10F7B0006D2D25645425483A254D3A2553257A0068
:10F7C00061736374696D6500000000000000000053
:10F7D000E9F53F0255F63F022DF63F02C9F43F021C
:10F7E000FDF53F0219F63F020BF63F0227F63F02F6
:10F7F000EBF53F02EFF53F020000000000000000C3
:10F8000099F63F0201F73F02D7F63F02C9F43F02E3
:10F81000C9F63F029BF63F02ABF63F02FBF63F0202
:10F82000BBF63F0293F63F0200000000000000001C
:10F83000F7F73F02EDF73F02E3F73F0299F73F0288
:10F84000D7F73F02CBF73F02A5F33F02ADF33F02EC
:10F85000BFF73F02B7F73F02ADF73F02A3F73F0202
:10F86000DDF33F02005245454E54206D616C6C6FD4
:10F870006320737563636565646564002F746D70E0
:10F880002F6A656E6B696E732D4743432D31302DA2
:10F89000706970656C696E652D34385F3230323056
:10F8A000313132345F313630363138303633392FFA
:10F8B0007372632F6E65776C69622F6E65776C6902
:10F8C000622F6C6962632F7374646C69622F72615A
:10F8D0006E642E6300000000C1E83F02D1F03F02D9
:10F8E00049F13F0255F33F02B5F43F0291F53F0263
:0CF8F000B1F53F02D5F53F0201F83F02E0
:10F8FC00000000020A0000000E000000B8FE3F02EB
:10F90C0004AE071000000000000000000000000022
:10F91C0000000000000000000000000000000000DB
:10F92C0000000000000000000000000000000000CB
:10F93C0000000000000000000000000000000000BB
:10F94C0000000000000000000000000000000000AB
:10F95C00000000000000000000000000000000009B
:08F96C0000000000E4AF0710E9
:04F97400000000008F
:10FFBE000200100000E05F0888E05F0880E73F0263
:10FFCE0001000A00FFFFFFFFFFFF00000102030414
:10FFDE0005060708090A0B0C0D0E0F10111213144B
:0EFFEE0015161718191A1B1C1D1E1F203E0089
:04FFFC0078563412ED
:04000005085FE01898
:00000001FF
