:02000004085F93
:10D0000000D05F08FCFF5F0800000600200005015B
:08D0100004017D150000000081
:10D018001348144908B5884205D0134A824202D001
:10D02800124B121A98471248124A0021124B121A30
:10D03800984712481249884205D0124A824202D0C3
:10D048000A4B121A984710481049884205D0104ACE
:10D05800824202D0054B121A9847014808BD00BF0A
:10D06800F0AC0710F4F55F087CAD07102D0D11101A
:10D078007CAD0710E8AF0710A10E1110A8DA3F0227
:10D08800A8D05F08B0DA3F02B0DA3F02B0D05F083C
:0CD09800F4FF3F0219D05F080000000008
:08D0A8009CD05F08C4FC3F02AC
:10D0B00010F8012B11F8013B012A28BF9A42F7D042
:10D0C000D01A7047034613F8012B002AFBD1181A17
:10D0D0000138704770B501F075FE0025054E064C0D
:10D0E000A41BA408AC4200D170BD56F8043B98477D
:10D0F0000135F7E7D0FF3F02F4FF3F0200F07AB8B6
:10D1000008B500F067FABDE8084001F013BE00F072
:10D110003FBE00F03DBE00F049BE0078B0FA80F09E
:10D1200040097047012303707047000010B50D4996
:10D13000044601F090FC18B100200B4B186010BDA4
:10D1400020460A4901F087FC08B10120F5E7204696
:10D15000074901F080FC08B10220EEE74FF0FF30F4
:10D16000EDE700BFD4FC3F025CAE0710D6FC3F02E7
:10D17000D8FC3F0210B51049044601F06CFC18B110
:10D1800000200E4B186010BD20460D4901F063FCD5
:10D1900008B10120F5E720460A4901F05CFC08B11E
:10D1A0000220EEE72046084901F055FC08B10320B3
:10D1B000E7E74FF0FF30E6E7D4FC3F0264AE07102C
:10D1C000D6FC3F02D8FC3F02DAFC3F0270B50C1ED1
:10D1D000064615460BDA0A2A09D12D2101F07AFB01
:10D1E00061423046EAB2BDE8704001F08CBB214696
:10D1F000F7E7000070B52D4C2D4E20462D4A2E49E4
:10D2000000F0F1FE2D4D2E4A20462E4900F0EBFE97
:10D210002D4C3088012101F045FE2888012101F0C4
:10D2200041FE2088012101F03DFE284B0021188895
:10D2300001F038FE4FF4FA7000F026FE308801212C
:10D2400001F041FE2888012101F03DFE01212088E6
:10D2500001F039FE642000F017FE0021308801F053
:10D2600032FE4FF47A7000F00FFE3088012101F099
:10D270002AFE0021288801F026FE4FF47A7000F083
:10D2800003FE2888012101F01EFE0021208801F004
:10D290001AFE4FF47A7000F0F7FD2088012101F0AA
:10D2A00012FEBDE87040642000F0EEBDBBE93F0215
:10D2B00008AD0710DCFC3F022DDB3F02F8AC071085
:10D2C000E2FC3F0275DB3F02F4AC07100CAD071027
:10D2D0002DE9F74FDFF8FC80344AD8F80010344BC2
:10D2E000012922D0022924D029BB14211160052252
:10D2F0001A60002425462F4F2F4EDFF8DCB0DFF8F0
:10D30000DC90DFF8DCA03C603460DBF80000A04279
:10D3100015DDBAF8000001F0EFFDC9F80000054482
:10D32000322000F0B1FD0134EFE728211160142212
:10D33000DEE73C21FAE7002111601960D9E7642398
:10D3400095FBF0F01D4A1E490093096800231268FE
:10D35000386000F08DFD1B4BD8F8002030601A605B
:10D3600001F058FC0A22D9F80010FFF72FFF01F056
:10D3700051FC154901F0BDFA01F04CFC0A22396854
:10D38000FFF724FF01F046FC104901F0B2FA01F06A
:10D3900041FC31680A22FFF719FF01F03BFC0C4900
:10D3A00003B0BDE8F04F01F0A4BA00BF78AE07109B
:10D3B00074AE07108CAD071060AE071000AD0710FB
:10D3C000FCAC071054AE0710EBFC3F02F8FC3F0228
:10D3D000FDFC3F025CAE071004AD071070AE0710F5
:10D3E0000CAD071038B500F07BF9194D286001F03D
:10D3F00011FC184901F06AFA01F00CFC04460A22FB
:10D40000296801F080FA204601F067FA4FF4FA70BB
:10D4100000F01CF9104B11491B68114A032B04DC66
:10D42000012B11DC2BB1012B08D00020086010600B
:10D4300007E0062008600221116002E0022013606C
:10D440000860084A136038BD012008600021F3E736
:10D4500080AD071000FD3F0264AE07106CAE0710F0
:10D4600068AE071058AE0710F8B5234A234B126870
:10D470001B68934220D8224A126893422CBF002393
:10D480000123204A204F1360204B214A1B68126859
:10D49000204E9342204D214C10DA0021388801F0B3
:10D4A00012FD0121308801F00EFD0121288801F0D4
:10D4B0000AFD01232360F8BD0123E2E7184A126840
:10D4C00093420ADD0021308801F0FDFC012128880B
:10D4D00001F0F9FC01213888E9E70121388801F0E1
:10D4E000F2FC0121308801F0EEFC0021288801F0D7
:10D4F000EAFC0023DEE700BF6CAE071080AD07102A
:10D5000068AE071084AD071008AD071060AE0710B5
:10D5100074AE0710F4AC0710F8AC07107CAD071020
:10D5200078AE071010B51E4B8AB01B68C021079358
:10D530001C4B1D4A1B681D4806931D4B1B68059319
:10D540001C4B1B6804931C4B1B6803931B4B1B68F1
:10D5500002931B4B1B6801931A4B1B6800931A4BD9
:10D5600000F040FC194B114A1B7819498DF8003026
:10D5700008A83C2300F02AFE099C7CB16368013BAB
:10D5800063605BB9236820469B689847A368013BAA
:10D59000A3601BB923682046DB6898470AB010BD1A
:10D5A00084AD07107CAD071027FD3F0290AD07103A
:10D5B00074AE071078AE071068AE07106CAE071097
:10D5C00060AE071080AD071006FD3F0288AD071062
:10D5D000BCFD3F0208B500F0BDF8134A13491368BB
:10D5E000C31A8B4208D91060FFF772FEFFF7FAFEEC
:10D5F000FFF73AFFFFF796FF0D4B1A680D4B1B68BC
:10D600009A4205D10C4B1A680C4B1B689A4209D000
:10D61000FFF75EFEFFF7E6FEFFF726FFBDE80840D6
:10D62000FFF780BF08BD00BF50AE0710DF930400B6
:10D6300054AE07105CAE071058AE071064AE07106A
:10D640000122014B1A70704788AD071000F01CBC16
:10D6500038B50C46054601F07DFC0B4B197800F0FF
:10D66000D0FF01F077FC036829469B68984701F0DA
:10D6700071FC036821469B68984701F06BFCBDE88C
:10D68000384000F0C6BF00BF7CAE071070B5134D28
:10D69000044601F05FFC297800F0B3FF01F05AFC6A
:10D6A000036821469B68984701F054FC00F0B1FFE5
:10D6B00001F050FC012329781A4600F090FF01F098
:10D6C00049FC03681B69984730B101F043FCBDE891
:10D6D000704003685B69184770BD00BF7CAE0710DF
:10D6E00038B534211920FFF7B3FF0A210020FFF7D6
:10D6F000AFFF1020FFF7CAFF05461120FFF7C6FF56
:10D7000004461220FFF7C2FF24020304A4B203F46C
:10D710007F032343E8B2184338BD000009B504482D
:10D720000068044B03441B685B6C029309BD000056
:10D73000F0AC07103000000009B504480068044B45
:10D7400003441B685B68029309BD0000F0AC07103E
:10D750000000000009B504480068044B03441B683E
:10D760005B69029309BD0000F0AC071000000000E7
:10D7700009B504480068044B03441B685B680293C6
:10D7800009BD0000F0AC07101400000009B5044802
:10D790000068044B03441B689B68029309BD0000AA
:10D7A000F0AC07101400000009B504480068044BF1
:10D7B00003441B68DB68029309BD0000F0AC07104E
:10D7C0001400000009B504480068044B03441B68BA
:10D7D0001B69029309BD0000F0AC071014000000A3
:10D7E00009B504480068044B03441B681B6B029393
:10D7F00009BD0000F0AC07101400000009B5044892
:10D800000068044B03441B689B69029309BD000038
:10D81000F0AC07101000000009B504480068044B84
:10D8200003441B68DB69029309BD0000F0AC0710DC
:10D830001000000009B504480068044B03441B684D
:10D840001B6A029309BD0000F0AC07101000000035
:10D8500009B504480068044B03441B685B6A0293E3
:10D8600009BD0000F0AC07101000000009B5044825
:10D870000068044B03441B689B6A029309BD0000C7
:10D88000F0AC07101000000009B504480068044B14
:10D8900003441B68DB6A029309BD0000F0AC07106B
:10D8A0001000000009B504480068044B03441B68DD
:10D8B0001B6B029309BD0000F0AC071010000000C4
:10D8C00009B504480068044B03441B685B6B029372
:10D8D00009BD0000F0AC07101000000009B50448B5
:10D8E0000068044B03441B681B6C029309BD0000D5
:10D8F000F0AC07101000000009B504480068044BA4
:10D9000003441B681B6D029309BD0000F0AC0710B7
:10D910001000000009B504480068044B03441B686C
:10D920005B69029309BD0000F0AC07104C000000D9
:10D9300009B504480068044B03441B689B680293C4
:10D9400009BD0000F0AC07105000000009B5044804
:10D950000068044B03441B68DB68029309BD0000A8
:10D96000F0AC07105000000009B504480068044BF3
:10D9700003441B68DB69029309BD0000F0AC07108B
:10D980001800000009B504480068044B03441B68F4
:10D990001B6A029309BD0000F0AC071018000000DC
:10D9A00009B504480068044B03441B68DB68029314
:10D9B00009BD0000F0AC07102400000009B50448C0
:10D9C0000068044B03441B681B69029309BD0000F7
:10D9D000F0AC07102400000009B504480068044BAF
:10D9E00003441B685B69029309BD0000F0AC07109B
:10D9F0002400000009B504480068044B03441B6878
:10DA00009B69029309BD0000F0AC071024000000E0
:10DA100009B504480068044B03441B68DB690293A2
:10DA200009BD0000F0AC07102400000009B504484F
:10DA30000068044B03441B681B6A029309BD000085
:10DA4000F0AC07102400000009B504480068044B3E
:10DA500003441B689B6A029309BD0000F0AC0710E9
:10DA60002400000009B504480068044B03441B6807
:10DA70001B6C029309BD0000F0AC071024000000ED
:10DA800009B504480068044B03441B681B680293F3
:10DA900009BD0000F0AC07103400000009B50448CF
:10DAA0000068044B03441B681B69029309BD000016
:10DAB000F0AC07103400000009B504480068044BBE
:10DAC00003441B685B69029309BD0000F0AC0710BA
:10DAD0003400000009B504480068044B03441B6887
:10DAE0009B69029309BD0000F0AC071034000000F0
:10DAF00009B504480068044B03441B68DB690293C2
:10DB000009BD0000F0AC07103400000009B504485E
:10DB10000068044B03441B681B6A029309BD0000A4
:10DB2000F0AC07103400000009B504480068044B4D
:10DB300003441B685B68029309BD0000F0AC07104A
:10DB40000800000009B504480068044B03441B6842
:10DB50005B69029309BD0000F0AC071008000000EB
:10DB600009B504480068044B03441B68DB6C02934E
:10DB700009BD0000F0AC07100800000009B504481A
:10DB80000068044B03441B685B6D029309BD0000F1
:10DB9000F0AC07100800000009B504480068044B09
:10DBA00003441B68D3F88830029309BDF0AC07101A
:10DBB0000800000009B504480068044B03441B68D2
:10DBC000D3F89430029309BDF0AC071008000000B0
:10DBD00009B504480068044B03441B685B68029362
:10DBE00009BD0000F0AC07102C00000009B5044886
:10DBF0000068044B03441B685B69029309BD000085
:10DC0000F0AC07102C00000009B504480068044B74
:10DC100003441B681B6A029309BD0000F0AC0710A7
:10DC20002C00000009B504480068044B03441B683D
:10DC3000DB6B029309BD0000F0AC07102C00000064
:10DC400009B504480068044B03441B685B680293F1
:10DC500009BD0000F0AC07102800000009B5044819
:10DC60000068044B03441B689B68029309BD0000D5
:10DC7000F0AC07102800000009B504480068044B08
:10DC800003441B68DB68029309BD0000F0AC071079
:10DC90002800000009B504480068044B03441B68D1
:10DCA0001B69029309BD0000F0AC071028000000BA
:10DCB00009B504480068044B03441B685B69029380
:10DCC00009BD0000F0AC07102800000009B50448A9
:10DCD0000068044B03441B689B69029309BD000064
:10DCE000F0AC07102800000009B504480068044B98
:10DCF00003441B68DB69029309BD0000F0AC071008
:10DD00002800000009B504480068044B03441B6860
:10DD10001B6A029309BD0000F0AC07102800000048
:10DD200009B504480068044B03441B681B6B02934D
:10DD300009BD0000F0AC07102800000009B5044838
:10DD40000068044B03441B685B6B029309BD000031
:10DD5000F0AC07102800000009B504480068044B27
:10DD600003441B681B6C029309BD0000F0AC071054
:10DD70002800000009B504480068044B03441B68F0
:10DD80005B6C029309BD0000F0AC07102800000096
:10DD900009B504480068044B03441B681B680293E0
:10DDA00009BD0000F0AC07100400000009B50448EC
:10DDB0000068044B03441B685B68029309BD0000C4
:10DDC000F0AC07100400000009B504480068044BDB
:10DDD00003441B689B68029309BD0000F0AC071068
:10DDE0000400000009B504480068044B03441B68A4
:10DDF000DB69029309BD0000F0AC071004000000CD
:10DE000009B504480068044B03441B68DB6A0293AD
:10DE100009BD0000F0AC07100400000009B504487B
:10DE20000068044B03441B681B6B029309BD000090
:10DE3000F0AC07100400000009B504480068044B6A
:10DE400003441B681B6C029309BD0000F0AC071073
:10DE50000400000009B504480068044B03441B6833
:10DE60005B6C029309BD0000F0AC071004000000D9
:10DE70008A4210B507D0441A0298C01A4443501A77
:10DE800094FBF0F0184410BD0021FFF75BBE38B5DD
:10DE9000046805467CB16368013B63605BB9236835
:10DEA00020469B689847A368013BA3601BB9236881
:10DEB0002046DB689847284638BD10B5836804467D
:10DEC0000BB901F02DF9C3689847A3681BB1032271
:10DED0002146204698472046BDE810401021FFF714
:10DEE0001AB910B58368044613B103220146984756
:10DEF000204610BD13B56C460B460246D0E9000122
:10DF000084E8030093E8030082E8030094E8030038
:10DF100083E8030002B010BD002302480360FFF74E
:10DF2000FDBB00BF80AE071070470020704710B5E2
:10DF300004461021FFF7EFF8204610BD08B5FFF7A3
:10DF4000F6FF08BD002230B54FF69C740260848055
:10DF50008D888C800C68858004600A6030BD10B5A7
:10DF600004460068FFF722FF204610BD38B5C4689C
:10DF700014B32378DBB2022B03D104F10C00FFF7BA
:10DF8000EEFF231D1D6835B12846FFF7AAFF1021BB
:10DF90002846FFF7C0F804F108031D6835B128468C
:10DFA000FFF79FFF10212846FFF7B5F82046BDE890
:10DFB00038401421FFF7AFB838BD10B588B004461B
:10DFC000684600F01AFD694604A800F039FD04A86F
:10DFD000A047044604A800F0C5FC684600F0C2FC57
:10DFE000204608B010BD1FB500231024CDE9020162
:10DFF000019269461A461846ADF80230ADF8004065
:10E00000FFF7E6FD04B010BD0B6803604B6843608A
:10E0100013B15A6801325A60704737B504466846F2
:10E020000D46FFF7F1FF009B019A23600023626019
:10E0300001A801930093FFF72AFF35B1281DFFF7D0
:10E0400026FF08212846FFF766F8204603B030BDBA
:10E05000826810B50AB901F063F8C368BDE81040E2
:10E06000184708B5006800F11001FFF7F1FF08BD7F
:10E07000826810B50AB901F053F8C368BDE81040D2
:10E08000184708B5006800F11001FFF7F1FF08BD5F
:10E0900038B500230446036010200D46FFF737F81B
:10E0A00028B10123C0E90133024BC5600360206041
:10E0B000204638BDD8FD3F0238B5002383608B6809
:10E0C00004460D462BB102229847EB68E360AB682B
:10E0D000A360204638BD0000F0B589B004686846EA
:10E0E000FFF730FF4FF00203D4E84F2F002A03D18F
:10E0F000C4E8413F0029F7D121D104F10C0569465C
:10E100002846FFF71FFF0122631CC3E88F2F002062
:10E1100004F10803D3E8EF6FC3E8E20F002AF9D156
:10E120006EB1FFF71DFD78B129463046FFF790FF2D
:10E130003046FFF7D6FE10213046FEF7ECFF68466A
:10E14000FFF70DFF09B0F0BD314602A8FFF7B4FF9D
:10E15000E068B4F9105008B101F02EF806901020D4
:10E16000ADF81C50FEF7D3FF0546E8B100278760E5
:10E170001820FEF7CCFF044688B10146876002A84C
:10E18000FFF7B8FE049BA268A360059B0492E268B7
:10E1900006A9E36004F110000592FFF7D3FE084BD7
:10E1A0002C60EB60074BAB6006A8FFF7D8FE02A817
:10E1B000FFF797FE002229460348FFF7DFFCB7E789
:10E1C00063EA3F02DDEC3F02BBE83F022DE9F04F7E
:10E1D0008BB005460F46904699469DF850A0FFF734
:10E1E00005FD07AE834638BB4FF62E73059005A993
:10E1F0003046ADF81830FFF7A5FE1420FEF787FF74
:10E20000044648B1022303700123C0E901BB4370F7
:10E2100031460C30FFF796FE2846214640F8044B65
:10E22000FFF736FF3046FFF79AFE05A8FFF797FE87
:10E2300028460BB0BDE8F08F0C2300241420CDE954
:10E2400008440793FEF763FF014618B1C0E9014493
:10E250000470447004A80391FFF71AFF1E4B0820B6
:10E260000893FEF754FF044610B103A9FFF7CCFE54
:10E270004A464146384600965FFA8AF30994FFF70A
:10E28000C3FCB8B9039B01331B78DBB293B9059388
:10E290004FF69C7305A903A8ADF81830FFF71CFFD3
:10E2A00005A8FFF75CFE05A80999FFF7B6FE06A8CA
:10E2B000FFF7EDFD03A905A8FFF7A6FE059B069A4B
:10E2C0002B6000236A6006A806930593FFF7DFFD25
:10E2D00004A8FFF7DCFDABE759ED3F02012AF8B5D2
:10E2E000054603D10B6803600020F8BD022A10D058
:10E2F000032AF9D10468002CF6D004F11000FFF7CE
:10E300002EFE2046FFF7EDFD18212046FEF703FF05
:10E31000EAE718200E68FEF7FAFE044650B13146CF
:10E32000FFF7CAFE3069B6F9147008B100F044FF77
:10E330002061A7822C60D7E738B5002383608B6803
:10E3400004460D462BB102229847EB68E360AB68A8
:10E35000A360204638BD0000F0B5044689B00D46E4
:10E3600001A81146FFF759FEA4B124B21DB12846F9
:10E3700000F022FF054601A803A90395ADF810405F
:10E38000FFF7AAFE03A8FFF7EAFD02A8FFF77FFD4B
:10E3900009B0F0BD0123019DD5E84F2F002A03D11C
:10E3A000C5E8413F0029F7D1EFD12B730122EB18CB
:10E3B000C3E88F2F2B1DD3E8EF6FC3E8E24F002A8D
:10E3C000F9D1002EE1D02046FFF7CAFB074660B125
:10E3D000304605F10C01FFF74BFE3046FFF781FD9B
:10E3E00010213046FEF797FECFE7314603A8FFF72E
:10E3F000A3FF2B7B10208DF81C30FEF788FE05460E
:10E40000D0B187601420FEF782FE044678B1014641
:10E41000876003A8FFF76EFD059BA268A360069BBB
:10E420000592E268E3609DF81C3006922374074B66
:10E430002C60EB60064BAB6003A8FFF752FD002297
:10E4400029460448FFF79AFBC7E700BF83EA3F026B
:10E4500059EE3F02BBE83F02012A70B5044603D1E2
:10E460000B680360002070BD022A0CD0032AF9D18A
:10E470000468002CF6D02046FFF733FD1421204617
:10E48000FEF749FEEEE714200E68FEF740FE054653
:10E4900020B13146FFF750FF337C2B742560E1E754
:10E4A000002240681146FFF72DBC0022406811464B
:10E4B000FFF744BC00224068FFF732BC00224068EE
:10E4C00081F00101FFF710BC002340681A4619468D
:10E4D000FFF7FCBB002340681A461946FFF7E8BB6C
:10E4E000002240681146FFF7D5BB00224068114664
:10E4F000FFF7B4BB002202214068FFF7BDBB002339
:10E5000040681A46FFF79CBB0322024B5A60024A3E
:10E510001A60704784AE0710F4FD3F027047F8B5EB
:10E52000064615460C468F18BC4206D03368304666
:10E530009B6814F8011B9847F6E72846F8BD0022AF
:10E54000007CFFF777B90021007CFFF781B900213B
:10E55000007CFFF78BB90021007CFFF795B9002103
:10E56000007CFFF79FB910B504461421FEF7D3FDD8
:10E57000204610BD38B5044615464FF47A73002284
:10E58000C4E90123094B0846217423602946FFF79B
:10E59000A5F9BF3008D16B69DB0705D56868FFF7BF
:10E5A00005FCE868FFF702FC204638BD30FE3F025C
:10E5B0007FB500221423CDE90122ADF804300B7899
:10E5C000007C8DF808304B680393CB6804930B7A7A
:10E5D00001A90593FFF790F907B05DF804FB1FB59B
:10E5E000003B8DF800104FF0640118BF0123039128
:10E5F000694601928DF80830FFF7DAFF05B05DF843
:10E6000004FB0022007CFFF7F9B80022007CFFF732
:10E6100003B90121FFF7F9BF704710B5044618216F
:10E62000FEF779FD204610BDF0B5037D0E46062BA2
:10E630004FF000048DB000F1040712D000F108057E
:10E6400015F8011D0A22304600F05DF9AF4204447E
:10E6500019D0002CF4D02E21304600F03BF90444B0
:10E66000EEE72F236A4639460A208DF80040FFF76F
:10E6700051F96846FEF726FD336802466946304682
:10E68000DB689847044620460DB0F0BD10B504463F
:10E69000044B1122002140F8043B00F057FD2046B6
:10E6A00010BD00BF58FE3F020346074A10B543F8AD
:10E6B000042B01F1100251F8044B914243F8044B32
:10E6C000F9D10A781A7010BD58FE3F0210B59DF8B6
:10E6D000084044EA032343EA0242042342EA016178
:10E6E0004160037510BD000007B5064B0360CB7891
:10E6F00000938B784A780978FFF7E8FF03B05DF85C
:10E7000004FB00BF58FE3F02014B024A1A607047EB
:10E710008CAE071064FE3F02002340681A46FFF7E4
:10E720008FBA002202214068FFF7A6BA0022406893
:10E730001146FFF793BA002240681146FFF7AABAC4
:10E74000002340681A461946FFF7B2BA0023406812
:10E750001A461946FFF7BABA00214068FFF7FCBA1B
:10E7600000214068FFF706BB0022406881F00101EC
:10E77000FFF7BABA00224068FFF7D2BA0022406819
:10E780001146FFF7DBBA002240681146FFF7BABA1C
:10E790002DE9F04395B014460D460746FFF776FF86
:10E7A00000211C220DA8009100F0D0FC402320463F
:10E7B0000C9300216B460CAAFFF7C8F8044600280A
:10E7C0004BD1024601216868FFF764FA02218046B6
:10E7D00022466868FFF75EFA21468146009E002EB9
:10E7E0003BD0002939D17368022B03D00A2B11D0FA
:10E7F000F669F4E7B8F1000FFAD0716906A80431A0
:10E800003C1D07ADFFF770FF0FCD0FC42B684146CD
:10E810002370EDE7B9F1000FEAD0102201A8746966
:10E8200000F094FC062301AD8DF8143004F10803C8
:10E8300018342A4618685968083303C2A34215469B
:10E84000F7D101A906A83C1D07ADFFF72DFF0FCD9D
:10E850000FC42B6849462370CAE70098FFF768F891
:10E86000384615B0BDE8F083024B034A1A60002217
:10E870005A60704790AE071070FE3F02F8B506462A
:10E880000D4600248F18BD420CD0336830469B687B
:10E8900015F8011B9847031E01DB1C44F3E7002C0D
:10E8A00008BF1C462046F8BD13B50446084659B1BA
:10E8B0000191FEF707FC0246204623680199DB68B8
:10E8C00002B0BDE81040184702B010BD08B5FFF710
:10E8D000EBFF08BD03689B68184738B50D21054656
:10E8E000FFF7F8FF0A2104462846FFF7F3FF20440C
:10E8F00038BD38B50546FFF7D7FF04462846FFF771
:10E90000ECFF204438BD0023012A98BF0A2230B50D
:10E910008BB08DF8243009AC0D46B1FBF2F101FB50
:10E92000125303F0FF03092B94BF30333733DBB2AC
:10E93000AA4204F8013DEFD92146FFF7B5FF0BB01D
:10E9400030BD00000022014B9A60704798AE07105E
:10E9500010B5044608462170FFF706F8002320464C
:10E96000636010BD10B504460068FFF71FFA20462B
:10E9700010BD10B50446006808B1FFF717FA002370
:10E98000C4E90133236010BD38B504460D46006864
:10E990000131FFF719FA10B1C4E90005012038BDB3
:10E9A00010B50368044623B143688B4201D30120AC
:10E9B00010BD2046FFF7E8FF0028F9D0A368002B20
:10E9C000F5D122681370F2E737B50D461146019272
:10E9D0000446FFF7E5FF019A28B92046FFF7C9FF73
:10E9E000204603B030BD2946A260206800F0A1FB9C
:10E9F00000212268A368D154F2E7002313B504462E
:10EA0000C0E900338360037341B108460191FEF70A
:10EA100059FB019902462046FFF7D6FF204602B077
:10EA200010BD884210B5044605D00B682BB18A682A
:10EA30001946FFF7C9FF204610BDFFF79AFFFAE716
:10EA4000002310B50446C0E9003383600373FFF769
:10EA5000E8FF204610BD08B582683AB921B10878B0
:10EA6000B0FA80F0400900E0012008BD006809B953
:10EA70000078F5E7FEF71CFBF2E700000222002019
:10EA8000044B1A60044B054AC3E900009A60FFF783
:10EA90004BB800BFB4AE0710A8AE07100000FFFFD0
:10EAA000024B1A68024B1A60704700BF10AD071086
:10EAB000B8AE071070474174704708B5007CFEF788
:10EAC000C3FF20EAE07008BD08B5007CFEF776FFC2
:10EAD00020EAE07008BD08B5007CFEF78BFF40EA35
:10EAE000E07008BD08B5007CFEF776FF40EAE070F4
:10EAF00008BD007CFEF78CBF37B5457C04462DB1C0
:10EB0000207C03B0BDE83040FEF74ABF007C019195
:10EB1000FEF79AFF00280199F2DC284603B030BDC9
:10EB200010B504461421FEF7F6FA204610BD000089
:10EB300010B54FF47A730446084611460022C4E922
:10EB40000123044B2074236001236374FEF78AFFC2
:10EB5000204610BDC8FE3F02007CFEF767BF41742F
:10EB600070477047704708B50021007CFEF7B2FF80
:10EB700040EAE07008BD08B50121007CFEF7AAFF5D
:10EB800040EAE07008BD08B5007CFEF795FF20EA7A
:10EB9000E07008BD08B5007CFEF780FF20EAE07059
:10EBA00008BD13B50446007C0191FEF785FF0028DF
:10EBB000019901DC607C20B1207CFEF799FF20EAFE
:10EBC000E07002B010BD007CFEF7A0BF10B5044697
:10EBD0001421FEF7A0FA204610BD000010B54FF436
:10EBE0007A73044608460021C4E90113044B2074DB
:10EBF0002360012311466374FEF742FF204610BDD7
:10EC0000F8FE3F0210B504461422002100F09EFADF
:10EC1000204610BD10B588B003A8FFF7F3FF0C4CD9
:10EC2000D4E88F1F11F001010FD120460191FEF7AA
:10EC300074FA019948B103AA0648FFF7CFFF2046AE
:10EC4000FEF770FA044800F06EFA024808B010BDF2
:10EC5000BCAE0710C0AE071063F53F02002240684B
:10EC60001146FFF717B8002240681146FFF74AB86F
:10EC7000002240681146FFF761B800224068FFF7A4
:10EC80004FB80022406881F00101FFF72DB8002342
:10EC900040681A461946FFF719B8002340681A461B
:10ECA0001946FFF705B8002240681146FEF7D6BFA7
:10ECB000002202214068FEF7DFBF002340681A46A9
:10ECC000FEF7BEBF0422024B5A60024A1A60704728
:10ECD000D4AE071028FF3F02014B1860704700BFF9
:10ECE00014AD071008B50F4B43B1FFF793FF03684E
:10ECF0001B699847002801DD00E000BF0A4B43B1C3
:10ED000000F07CF903681B699847002801DD00E0EA
:10ED100000BF064B0BB100F0B7F9054B0BB100F08B
:10ED2000E9F908BD0000000000000000000000003C
:10ED30000000000008B5FFF7D5FFFEF70BFD014B03
:10ED4000186008BDF0AE07100548064A08B5121A4B
:10ED5000054900F0EEF9054B054A1A6008BD00BFF1
:10ED600000B4071004B4071080F65F0800B4071061
:10ED70001E1C279A002307B51A466FF077010093EF
:10ED8000FEF718FF03B05DF804FB000007B54388E9
:10ED90000A2B08D0502B0BD1094B1B684BB103B089
:10EDA0005DF804EB1847FFF7E5FF03B05DF804FBDF
:10EDB00000231A466FF077010093FEF7FBFEF4E79D
:10EDC000E0AE0710002110B51148FFF743F8114BD2
:10EDD0001A68114B9A420CBF012200220F4B1A7085
:10EDE00001D0FFF7B1FFFEF7A7FC044600F0B6F92B
:10EDF0000B4B13B1204600E000BF00210848FEF78E
:10EE000011FFBDE8104000210648FEF7C5BE00BF57
:10EE1000D9F63F0200B407101E1C279ADCAE07107B
:10EE2000000000008DF73F021B2837B5044602D9C9
:10EE3000002003B030BDA0F10F03022B0BD9012835
:10EE400021D800F087F80021007CFEF739FD80F022
:10EE50000100C0B2EDE7114DD5E88F1F11F001019F
:10EE60000BD128460191FEF758F9019928B10C48B9
:10EE7000FFF76EFD2846FEF755F9094B1878FEF7A7
:10EE800081FD0028D4D1083C012C05D800F0B6F84B
:10EE9000007CFEF7CBFDDAE70120CAE7E4AE0710FD
:10EEA000E8AE07101B2838B504460D460AD8FF29DE
:10EEB00008D0FFF7B9FF28B129462046BDE8384001
:10EEC000FEF764BC38BD38B504460D46FEF76CFC51
:10EED000FF2810D0062804D84D2323FA00F0C307DA
:10EEE00009D42046FFF7A0FF28B129462046BDE8F7
:10EEF0003840FEF767BC38BD10B50446FFF794FFF5
:10EF000050B103212046FEF733FC032804D12046EC
:10EF1000BDE81040FEF764BC002010BD7047000043
:10EF200038B50A4B04460360012309494361202098
:10EF300000F0F4F82025606005492846A56000F03F
:10EF4000EDF8C4E90305204638BD00BF18000100F4
:10EF50005CFF3F0230B50E4D87B0D5E88F1F11F032
:10EF6000010411D12846FEF7D8F868B16846FFF7CA
:10EF7000D7FF6A4621460748FFF7FCFA2846FEF706
:10EF8000D1F8054800F0CFF8024807B030BD00BF07
:10EF9000F4AE0710F8AE07101DF93F0270470000ED
:10EFA00038B5142504462A46002100F0CFF8258004
:10EFB0004025074928462581258200F0AFF80449FD
:10EFC0006060284600F0AAF8E060204638BD00BF27
:10EFD0005CFF3F027047704710B50446FFF7E0FF43
:10EFE000204610BD10B50446FFF7DAFF204610BDDD
:10EFF00010B50446FFF7D4FF204610BD30B50E4DC6
:10F0000087B0D5E88F1F11F0010411D12846FEF713
:10F0100084F868B101A8FFF7DFFF214601AA07487D
:10F02000FFF786FD2846FEF77DF8054800F07BF8DF
:10F03000024807B030BD00BF0CAF071018AF071073
:10F040009DF93F0210B50D4C86B0D4E88F3FDB0729
:10F0500011D42046FEF761F868B101A8FFF7C2FF9E
:10F06000012101AA0648FFF763FD2046FEF75AF882
:10F07000044800F058F8024806B010BD10AF071061
:10F080002CAF0710D7F93F0210B5FFF7DBFF074B96
:10F09000044653B1FFF760FD38B1236820461B6971
:10F0A0009847002801DD00E000BF10BD000000000F
:10F0B00010B50D4C86B0D4E88F3FDB0711D4204645
:10F0C000FEF72BF868B101A8FFF792FF022101AA11
:10F0D0000648FFF72DFD2046FEF724F8044800F00F
:10F0E00022F8024806B010BD14AF071040AF071059
:10F0F000D5F93F0210B5FFF7DBFF074B044653B1CC
:10F10000FFF72AFD38B1236820461B69984700287D
:10F1100001DD00E000BF10BD00000000FDF7F9BFF9
:10F1200008B5FEF76DFE002301461A46184600F0AA
:10F1300061B80A44431E914200D1704710B511F8DE
:10F14000014B914203F8014FF9D110BD024403462F
:10F15000934200D1704703F8011BF9E738B5104B13
:10F1600004461D68AB6BB3B91820FEF711FE0246CA
:10F17000A86320B90B4B42210B48FEF75DFE0B49FB
:10F180000B4BC0E900130B4B002183600B238381E1
:10F190000120C2E90401AB6B00221C615A6138BD39
:10F1A00014AD07105DFF3F0274FF3F020E33CDAB7D
:10F1B00034126DE6ECDE0500024B0146186800F0E3
:10F1C00003B800BF14AD071037B5044608460D4616
:10F1D000FDF778FF421C204611460192FEF71EFE05
:10F1E000044618B1019A2946FFF7A3FF204603B051
:10F1F00030BD00002DE9F843DFF8BC8006461F460D
:10F200000D46D8F80000914600F058F8264B1C68CF
:10F2100034B9264C1C60264B13B11B68C4F88830E7
:10F2200063681F2B07DDD8F8000000F049F84FF0A5
:10F23000FF30BDE8F8835EB3D4F8880088B91D4B71
:10F2400023B9D8F8000000F03AF8F0E74FF48470E2
:10F25000FEF79EFD0028F4D00023C0E94033C4F837
:10F26000880063680122022E40F8239002FA03F21C
:10F2700000EB8301D0F8003143EA0203C0F800310B
:10F28000C1F8807002BFD0F804311343C0F80431D4
:10F290006368D8F800005A1C0233626044F82350B7
:10F2A00000F00EF80020C4E7E0AF071054AF0710DD
:10F2B0000000000091E73F0278AD071070477047EB
:10F2C00070470000D5DA3F02FDDA3F0201DB3F0262
:10F2D00000000000300031003200330057617465D7
:10F2E000720053756E6C69676874002053696E67AD
:10F2F0006C65205265616400204143470020250071
:10F300005556203D20004E6D6A667134355A4D5772
:10F31000415377644436495845514D7831783078B7
:10F320006A3468597643007B2274223A222573227C
:10F330002C226E65775F73756E5F6C696768745FAA
:10F340006C6576656C223A25692C226E65775F7351
:10F350006F696C5F6C6576656C223A25692C227347
:10F36000756E5F7570706572223A25692C2273750F
:10F370006E5F6C6F776572223A25692C2277617413
:10F3800065725F7570706572223A25692C2277610B
:10F390007465725F6C6F776572223A25692C22481A
:10F3A000324F5F4572726F72223A25692C22555690
:10F3B0005F4572726F72223A25697D0053656E64F3
:10F3C0005F736D617274706F745F6461746100006B
:10F3D000000000000000000029E93F022FE93F0281
:10F3E0006DE93F023DE93F022BE93F0200000000CA
:10F3F00000000000FFEE3F02F5EE3F02EBEE3F02A1
:10F40000E1EE3F02D5EE3F02C9EE3F0259F13F0265
:10F4100061F13F02BDEE3F02B5EE3F02ABEE3F02AF
:10F42000A1EE3F0291F13F02000000000000000049
:10F430001DEF3F0267EF3F023FEF3F021FEF3F022A
:10F4400047EF3F024FEF3F0257EF3F025FEF3F02B0
:10F45000000000000000000029F03F0219F03F0208
:10F460001BF03F026170700000000000000000000F
:10F4700019F13F0223F13F022DF13F0237F13F0224
:10F4800041F13F024DF13F0259F13F0261F13F026C
:10F4900069F13F0275F13F027DF13F0287F13F02C2
:10F4A00091F13F0225592D256D2D25645425483AAB
:10F4B000254D3A2553257A0061736374696D6500A3
:10F4C0000000000000000000B5F43F0221F53F02FB
:10F4D000F9F43F027DF23F02C9F43F02E5F43F0236
:10F4E000D7F43F02F3F43F02B7F43F02BBF43F020C
:10F4F000000000000000000065F53F02CDF53F026E
:10F50000A3F53F027DF23F0295F53F0267F53F020A
:10F5100077F53F02C7F53F0287F53F025FF53F02EF
:10F520000000000000000000BBF63F02B1F63F0201
:10F53000A7F63F025DF63F029BF63F028FF63F02C1
:10F5400059F13F0261F13F0283F63F027BF63F0231
:10F5500071F63F0267F63F0291F13F0200524545C6
:10F560004E54206D616C6C6F6320737563636565C9
:10F57000646564002F746D702F6A656E6B696E73BD
:10F580002D4743432D31302D706970656C696E6570
:10F590002D34385F32303230313132345F313630F1
:10F5A000363138303633392F7372632F6E65776C8E
:10F5B00069622F6E65776C69622F6C6962632F7365
:10F5C00074646C69622F72616E642E6300000000C7
:10F5D00041E03F0219E93F0209EF3F0209F13F0212
:10F5E00069F23F0245F33F027DF43F02A1F43F027E
:04F5F000C5F63F021B
:10F5F400000000020500000006000000220B0000CD
:10F60400AA0500000A000000070000000E00000028
:10F61400B8FE3F0218AD0710000000000000000013
:10F6240000000000000000000000000000000000D6
:10F6340000000000000000000000000000000000C6
:10F6440000000000000000000000000000000000B6
:10F6540000000000000000000000000000000000A6
:10F664000000000000000000000000000000000096
:0CF674000000000000000000E4AF0710E0
:04F680000000000086
:10FFBE000200100000D05F08A8D05F08A8DA3F0248
:10FFCE0001000A00FFFFFFFFFFFF00000102030414
:10FFDE0005060708090A0B0C0D0E0F10111213144B
:0EFFEE0015161718191A1B1C1D1E1F203E0089
:04FFFC0078563412ED
:04000005085FD018A8
:00000001FF
